{
  "_format": "hh-sol-artifact-1",
  "contractName": "Vault",
  "sourceName": "contracts/core/Vault.sol",
  "abi": [
    {
      "inputs": [],
      "stateMutability": "nonpayable",
      "type": "constructor"
    },
    {
      "anonymous": false,
      "inputs": [
        {
          "indexed": false,
          "internalType": "address",
          "name": "account",
          "type": "address"
        },
        {
          "indexed": false,
          "internalType": "address",
          "name": "token",
          "type": "address"
        },
        {
          "indexed": false,
          "internalType": "uint256",
          "name": "tokenAmount",
          "type": "uint256"
        },
        {
          "indexed": false,
          "internalType": "uint256",
          "name": "usdcAmount",
          "type": "uint256"
        },
        {
          "indexed": false,
          "internalType": "uint256",
          "name": "feeBasisPoints",
          "type": "uint256"
        }
      ],
      "name": "BuyUSDC",
      "type": "event"
    },
    {
      "anonymous": false,
      "inputs": [
        {
          "indexed": false,
          "internalType": "bytes32",
          "name": "key",
          "type": "bytes32"
        },
        {
          "indexed": false,
          "internalType": "uint256",
          "name": "size",
          "type": "uint256"
        },
        {
          "indexed": false,
          "internalType": "uint256",
          "name": "collateral",
          "type": "uint256"
        },
        {
          "indexed": false,
          "internalType": "uint256",
          "name": "averagePrice",
          "type": "uint256"
        },
        {
          "indexed": false,
          "internalType": "uint256",
          "name": "entryFundingRate",
          "type": "uint256"
        },
        {
          "indexed": false,
          "internalType": "uint256",
          "name": "reserveAmount",
          "type": "uint256"
        },
        {
          "indexed": false,
          "internalType": "int256",
          "name": "realisedPnl",
          "type": "int256"
        }
      ],
      "name": "ClosePosition",
      "type": "event"
    },
    {
      "anonymous": false,
      "inputs": [
        {
          "indexed": false,
          "internalType": "address",
          "name": "token",
          "type": "address"
        },
        {
          "indexed": false,
          "internalType": "uint256",
          "name": "feeUsd",
          "type": "uint256"
        },
        {
          "indexed": false,
          "internalType": "uint256",
          "name": "feeTokens",
          "type": "uint256"
        }
      ],
      "name": "CollectMarginFees",
      "type": "event"
    },
    {
      "anonymous": false,
      "inputs": [
        {
          "indexed": false,
          "internalType": "address",
          "name": "token",
          "type": "address"
        },
        {
          "indexed": false,
          "internalType": "uint256",
          "name": "feeUsd",
          "type": "uint256"
        },
        {
          "indexed": false,
          "internalType": "uint256",
          "name": "feeTokens",
          "type": "uint256"
        }
      ],
      "name": "CollectSwapFees",
      "type": "event"
    },
    {
      "anonymous": false,
      "inputs": [
        {
          "indexed": false,
          "internalType": "address",
          "name": "token",
          "type": "address"
        },
        {
          "indexed": false,
          "internalType": "uint256",
          "name": "amount",
          "type": "uint256"
        }
      ],
      "name": "DecreaseGuaranteedUsd",
      "type": "event"
    },
    {
      "anonymous": false,
      "inputs": [
        {
          "indexed": false,
          "internalType": "address",
          "name": "token",
          "type": "address"
        },
        {
          "indexed": false,
          "internalType": "uint256",
          "name": "amount",
          "type": "uint256"
        }
      ],
      "name": "DecreasePoolAmount",
      "type": "event"
    },
    {
      "anonymous": false,
      "inputs": [
        {
          "indexed": false,
          "internalType": "bytes32",
          "name": "key",
          "type": "bytes32"
        },
        {
          "indexed": false,
          "internalType": "address",
          "name": "account",
          "type": "address"
        },
        {
          "indexed": false,
          "internalType": "address",
          "name": "collateralToken",
          "type": "address"
        },
        {
          "indexed": false,
          "internalType": "address",
          "name": "indexToken",
          "type": "address"
        },
        {
          "indexed": false,
          "internalType": "uint256",
          "name": "collateralDelta",
          "type": "uint256"
        },
        {
          "indexed": false,
          "internalType": "uint256",
          "name": "sizeDelta",
          "type": "uint256"
        },
        {
          "indexed": false,
          "internalType": "bool",
          "name": "isLong",
          "type": "bool"
        },
        {
          "indexed": false,
          "internalType": "uint256",
          "name": "price",
          "type": "uint256"
        },
        {
          "indexed": false,
          "internalType": "uint256",
          "name": "fee",
          "type": "uint256"
        }
      ],
      "name": "DecreasePosition",
      "type": "event"
    },
    {
      "anonymous": false,
      "inputs": [
        {
          "indexed": false,
          "internalType": "address",
          "name": "token",
          "type": "address"
        },
        {
          "indexed": false,
          "internalType": "uint256",
          "name": "amount",
          "type": "uint256"
        }
      ],
      "name": "DecreaseReservedAmount",
      "type": "event"
    },
    {
      "anonymous": false,
      "inputs": [
        {
          "indexed": false,
          "internalType": "address",
          "name": "token",
          "type": "address"
        },
        {
          "indexed": false,
          "internalType": "uint256",
          "name": "amount",
          "type": "uint256"
        }
      ],
      "name": "DecreaseUsdcAmount",
      "type": "event"
    },
    {
      "anonymous": false,
      "inputs": [
        {
          "indexed": false,
          "internalType": "address",
          "name": "token",
          "type": "address"
        },
        {
          "indexed": false,
          "internalType": "uint256",
          "name": "amount",
          "type": "uint256"
        }
      ],
      "name": "DirectPoolDeposit",
      "type": "event"
    },
    {
      "anonymous": false,
      "inputs": [
        {
          "indexed": false,
          "internalType": "address",
          "name": "token",
          "type": "address"
        },
        {
          "indexed": false,
          "internalType": "uint256",
          "name": "amount",
          "type": "uint256"
        }
      ],
      "name": "IncreaseGuaranteedUsd",
      "type": "event"
    },
    {
      "anonymous": false,
      "inputs": [
        {
          "indexed": false,
          "internalType": "address",
          "name": "token",
          "type": "address"
        },
        {
          "indexed": false,
          "internalType": "uint256",
          "name": "amount",
          "type": "uint256"
        }
      ],
      "name": "IncreasePoolAmount",
      "type": "event"
    },
    {
      "anonymous": false,
      "inputs": [
        {
          "indexed": false,
          "internalType": "bytes32",
          "name": "key",
          "type": "bytes32"
        },
        {
          "indexed": false,
          "internalType": "address",
          "name": "account",
          "type": "address"
        },
        {
          "indexed": false,
          "internalType": "address",
          "name": "collateralToken",
          "type": "address"
        },
        {
          "indexed": false,
          "internalType": "address",
          "name": "indexToken",
          "type": "address"
        },
        {
          "indexed": false,
          "internalType": "uint256",
          "name": "collateralDelta",
          "type": "uint256"
        },
        {
          "indexed": false,
          "internalType": "uint256",
          "name": "sizeDelta",
          "type": "uint256"
        },
        {
          "indexed": false,
          "internalType": "bool",
          "name": "isLong",
          "type": "bool"
        },
        {
          "indexed": false,
          "internalType": "uint256",
          "name": "price",
          "type": "uint256"
        },
        {
          "indexed": false,
          "internalType": "uint256",
          "name": "fee",
          "type": "uint256"
        }
      ],
      "name": "IncreasePosition",
      "type": "event"
    },
    {
      "anonymous": false,
      "inputs": [
        {
          "indexed": false,
          "internalType": "address",
          "name": "token",
          "type": "address"
        },
        {
          "indexed": false,
          "internalType": "uint256",
          "name": "amount",
          "type": "uint256"
        }
      ],
      "name": "IncreaseReservedAmount",
      "type": "event"
    },
    {
      "anonymous": false,
      "inputs": [
        {
          "indexed": false,
          "internalType": "address",
          "name": "token",
          "type": "address"
        },
        {
          "indexed": false,
          "internalType": "uint256",
          "name": "amount",
          "type": "uint256"
        }
      ],
      "name": "IncreaseUsdcAmount",
      "type": "event"
    },
    {
      "anonymous": false,
      "inputs": [
        {
          "indexed": false,
          "internalType": "bytes32",
          "name": "key",
          "type": "bytes32"
        },
        {
          "indexed": false,
          "internalType": "address",
          "name": "account",
          "type": "address"
        },
        {
          "indexed": false,
          "internalType": "address",
          "name": "collateralToken",
          "type": "address"
        },
        {
          "indexed": false,
          "internalType": "address",
          "name": "indexToken",
          "type": "address"
        },
        {
          "indexed": false,
          "internalType": "bool",
          "name": "isLong",
          "type": "bool"
        },
        {
          "indexed": false,
          "internalType": "uint256",
          "name": "size",
          "type": "uint256"
        },
        {
          "indexed": false,
          "internalType": "uint256",
          "name": "collateral",
          "type": "uint256"
        },
        {
          "indexed": false,
          "internalType": "uint256",
          "name": "reserveAmount",
          "type": "uint256"
        },
        {
          "indexed": false,
          "internalType": "int256",
          "name": "realisedPnl",
          "type": "int256"
        },
        {
          "indexed": false,
          "internalType": "uint256",
          "name": "markPrice",
          "type": "uint256"
        }
      ],
      "name": "LiquidatePosition",
      "type": "event"
    },
    {
      "anonymous": false,
      "inputs": [
        {
          "indexed": false,
          "internalType": "address",
          "name": "account",
          "type": "address"
        },
        {
          "indexed": false,
          "internalType": "address",
          "name": "token",
          "type": "address"
        },
        {
          "indexed": false,
          "internalType": "uint256",
          "name": "usdcAmount",
          "type": "uint256"
        },
        {
          "indexed": false,
          "internalType": "uint256",
          "name": "tokenAmount",
          "type": "uint256"
        },
        {
          "indexed": false,
          "internalType": "uint256",
          "name": "feeBasisPoints",
          "type": "uint256"
        }
      ],
      "name": "SellUSDC",
      "type": "event"
    },
    {
      "anonymous": false,
      "inputs": [
        {
          "indexed": false,
          "internalType": "address",
          "name": "account",
          "type": "address"
        },
        {
          "indexed": false,
          "internalType": "address",
          "name": "tokenIn",
          "type": "address"
        },
        {
          "indexed": false,
          "internalType": "address",
          "name": "tokenOut",
          "type": "address"
        },
        {
          "indexed": false,
          "internalType": "uint256",
          "name": "amountIn",
          "type": "uint256"
        },
        {
          "indexed": false,
          "internalType": "uint256",
          "name": "amountOut",
          "type": "uint256"
        },
        {
          "indexed": false,
          "internalType": "uint256",
          "name": "amountOutAfterFees",
          "type": "uint256"
        },
        {
          "indexed": false,
          "internalType": "uint256",
          "name": "feeBasisPoints",
          "type": "uint256"
        }
      ],
      "name": "Swap",
      "type": "event"
    },
    {
      "anonymous": false,
      "inputs": [
        {
          "indexed": false,
          "internalType": "address",
          "name": "token",
          "type": "address"
        },
        {
          "indexed": false,
          "internalType": "uint256",
          "name": "fundingRate",
          "type": "uint256"
        }
      ],
      "name": "UpdateFundingRate",
      "type": "event"
    },
    {
      "anonymous": false,
      "inputs": [
        {
          "indexed": false,
          "internalType": "bytes32",
          "name": "key",
          "type": "bytes32"
        },
        {
          "indexed": false,
          "internalType": "bool",
          "name": "hasProfit",
          "type": "bool"
        },
        {
          "indexed": false,
          "internalType": "uint256",
          "name": "delta",
          "type": "uint256"
        }
      ],
      "name": "UpdatePnl",
      "type": "event"
    },
    {
      "anonymous": false,
      "inputs": [
        {
          "indexed": false,
          "internalType": "bytes32",
          "name": "key",
          "type": "bytes32"
        },
        {
          "indexed": false,
          "internalType": "uint256",
          "name": "size",
          "type": "uint256"
        },
        {
          "indexed": false,
          "internalType": "uint256",
          "name": "collateral",
          "type": "uint256"
        },
        {
          "indexed": false,
          "internalType": "uint256",
          "name": "averagePrice",
          "type": "uint256"
        },
        {
          "indexed": false,
          "internalType": "uint256",
          "name": "entryFundingRate",
          "type": "uint256"
        },
        {
          "indexed": false,
          "internalType": "uint256",
          "name": "reserveAmount",
          "type": "uint256"
        },
        {
          "indexed": false,
          "internalType": "int256",
          "name": "realisedPnl",
          "type": "int256"
        },
        {
          "indexed": false,
          "internalType": "uint256",
          "name": "markPrice",
          "type": "uint256"
        }
      ],
      "name": "UpdatePosition",
      "type": "event"
    },
    {
      "inputs": [],
      "name": "BASIS_POINTS_DIVISOR",
      "outputs": [
        {
          "internalType": "uint256",
          "name": "",
          "type": "uint256"
        }
      ],
      "stateMutability": "view",
      "type": "function"
    },
    {
      "inputs": [],
      "name": "FUNDING_RATE_PRECISION",
      "outputs": [
        {
          "internalType": "uint256",
          "name": "",
          "type": "uint256"
        }
      ],
      "stateMutability": "view",
      "type": "function"
    },
    {
      "inputs": [],
      "name": "MAX_FEE_BASIS_POINTS",
      "outputs": [
        {
          "internalType": "uint256",
          "name": "",
          "type": "uint256"
        }
      ],
      "stateMutability": "view",
      "type": "function"
    },
    {
      "inputs": [],
      "name": "MAX_FUNDING_RATE_FACTOR",
      "outputs": [
        {
          "internalType": "uint256",
          "name": "",
          "type": "uint256"
        }
      ],
      "stateMutability": "view",
      "type": "function"
    },
    {
      "inputs": [],
      "name": "MAX_LIQUIDATION_FEE_USD",
      "outputs": [
        {
          "internalType": "uint256",
          "name": "",
          "type": "uint256"
        }
      ],
      "stateMutability": "view",
      "type": "function"
    },
    {
      "inputs": [],
      "name": "MIN_FUNDING_RATE_INTERVAL",
      "outputs": [
        {
          "internalType": "uint256",
          "name": "",
          "type": "uint256"
        }
      ],
      "stateMutability": "view",
      "type": "function"
    },
    {
      "inputs": [],
      "name": "MIN_LEVERAGE",
      "outputs": [
        {
          "internalType": "uint256",
          "name": "",
          "type": "uint256"
        }
      ],
      "stateMutability": "view",
      "type": "function"
    },
    {
      "inputs": [],
      "name": "PRICE_PRECISION",
      "outputs": [
        {
          "internalType": "uint256",
          "name": "",
          "type": "uint256"
        }
      ],
      "stateMutability": "view",
      "type": "function"
    },
    {
      "inputs": [],
      "name": "USDC_DECIMALS",
      "outputs": [
        {
          "internalType": "uint256",
          "name": "",
          "type": "uint256"
        }
      ],
      "stateMutability": "view",
      "type": "function"
    },
    {
      "inputs": [
        {
          "internalType": "address",
          "name": "_router",
          "type": "address"
        }
      ],
      "name": "addRouter",
      "outputs": [],
      "stateMutability": "nonpayable",
      "type": "function"
    },
    {
      "inputs": [
        {
          "internalType": "uint256",
          "name": "_amount",
          "type": "uint256"
        },
        {
          "internalType": "address",
          "name": "_tokenDiv",
          "type": "address"
        },
        {
          "internalType": "address",
          "name": "_tokenMul",
          "type": "address"
        }
      ],
      "name": "adjustForDecimals",
      "outputs": [
        {
          "internalType": "uint256",
          "name": "",
          "type": "uint256"
        }
      ],
      "stateMutability": "view",
      "type": "function"
    },
    {
      "inputs": [
        {
          "internalType": "uint256",
          "name": "",
          "type": "uint256"
        }
      ],
      "name": "allWhitelistedTokens",
      "outputs": [
        {
          "internalType": "address",
          "name": "",
          "type": "address"
        }
      ],
      "stateMutability": "view",
      "type": "function"
    },
    {
      "inputs": [],
      "name": "allWhitelistedTokensLength",
      "outputs": [
        {
          "internalType": "uint256",
          "name": "",
          "type": "uint256"
        }
      ],
      "stateMutability": "view",
      "type": "function"
    },
    {
      "inputs": [
        {
          "internalType": "address",
          "name": "",
          "type": "address"
        },
        {
          "internalType": "address",
          "name": "",
          "type": "address"
        }
      ],
      "name": "approvedRouters",
      "outputs": [
        {
          "internalType": "bool",
          "name": "",
          "type": "bool"
        }
      ],
      "stateMutability": "view",
      "type": "function"
    },
    {
      "inputs": [
        {
          "internalType": "address",
          "name": "",
          "type": "address"
        }
      ],
      "name": "bufferAmounts",
      "outputs": [
        {
          "internalType": "uint256",
          "name": "",
          "type": "uint256"
        }
      ],
      "stateMutability": "view",
      "type": "function"
    },
    {
      "inputs": [
        {
          "internalType": "address",
          "name": "_token",
          "type": "address"
        },
        {
          "internalType": "address",
          "name": "_receiver",
          "type": "address"
        }
      ],
      "name": "buyUSDC",
      "outputs": [
        {
          "internalType": "uint256",
          "name": "",
          "type": "uint256"
        }
      ],
      "stateMutability": "nonpayable",
      "type": "function"
    },
    {
      "inputs": [
        {
          "internalType": "address",
          "name": "_token",
          "type": "address"
        }
      ],
      "name": "clearTokenConfig",
      "outputs": [],
      "stateMutability": "nonpayable",
      "type": "function"
    },
    {
      "inputs": [
        {
          "internalType": "address",
          "name": "",
          "type": "address"
        }
      ],
      "name": "cumulativeFundingRates",
      "outputs": [
        {
          "internalType": "uint256",
          "name": "",
          "type": "uint256"
        }
      ],
      "stateMutability": "view",
      "type": "function"
    },
    {
      "inputs": [
        {
          "internalType": "address",
          "name": "_account",
          "type": "address"
        },
        {
          "internalType": "address",
          "name": "_collateralToken",
          "type": "address"
        },
        {
          "internalType": "address",
          "name": "_indexToken",
          "type": "address"
        },
        {
          "internalType": "uint256",
          "name": "_collateralDelta",
          "type": "uint256"
        },
        {
          "internalType": "uint256",
          "name": "_sizeDelta",
          "type": "uint256"
        },
        {
          "internalType": "bool",
          "name": "_isLong",
          "type": "bool"
        },
        {
          "internalType": "address",
          "name": "_receiver",
          "type": "address"
        }
      ],
      "name": "decreasePosition",
      "outputs": [
        {
          "internalType": "uint256",
          "name": "",
          "type": "uint256"
        }
      ],
      "stateMutability": "nonpayable",
      "type": "function"
    },
    {
      "inputs": [
        {
          "internalType": "address",
          "name": "_token",
          "type": "address"
        }
      ],
      "name": "directPoolDeposit",
      "outputs": [],
      "stateMutability": "nonpayable",
      "type": "function"
    },
    {
      "inputs": [],
      "name": "errorController",
      "outputs": [
        {
          "internalType": "address",
          "name": "",
          "type": "address"
        }
      ],
      "stateMutability": "view",
      "type": "function"
    },
    {
      "inputs": [
        {
          "internalType": "uint256",
          "name": "",
          "type": "uint256"
        }
      ],
      "name": "errors",
      "outputs": [
        {
          "internalType": "string",
          "name": "",
          "type": "string"
        }
      ],
      "stateMutability": "view",
      "type": "function"
    },
    {
      "inputs": [
        {
          "internalType": "address",
          "name": "",
          "type": "address"
        }
      ],
      "name": "feeReserves",
      "outputs": [
        {
          "internalType": "uint256",
          "name": "",
          "type": "uint256"
        }
      ],
      "stateMutability": "view",
      "type": "function"
    },
    {
      "inputs": [],
      "name": "fundingInterval",
      "outputs": [
        {
          "internalType": "uint256",
          "name": "",
          "type": "uint256"
        }
      ],
      "stateMutability": "view",
      "type": "function"
    },
    {
      "inputs": [],
      "name": "fundingRateFactor",
      "outputs": [
        {
          "internalType": "uint256",
          "name": "",
          "type": "uint256"
        }
      ],
      "stateMutability": "view",
      "type": "function"
    },
    {
      "inputs": [
        {
          "internalType": "address",
          "name": "_indexToken",
          "type": "address"
        },
        {
          "internalType": "uint256",
          "name": "_size",
          "type": "uint256"
        },
        {
          "internalType": "uint256",
          "name": "_averagePrice",
          "type": "uint256"
        },
        {
          "internalType": "bool",
          "name": "_isLong",
          "type": "bool"
        },
        {
          "internalType": "uint256",
          "name": "_lastIncreasedTime",
          "type": "uint256"
        }
      ],
      "name": "getDelta",
      "outputs": [
        {
          "internalType": "bool",
          "name": "",
          "type": "bool"
        },
        {
          "internalType": "uint256",
          "name": "",
          "type": "uint256"
        }
      ],
      "stateMutability": "view",
      "type": "function"
    },
    {
      "inputs": [
        {
          "internalType": "address",
          "name": "_collateralToken",
          "type": "address"
        },
        {
          "internalType": "address",
          "name": "_indexToken",
          "type": "address"
        },
        {
          "internalType": "bool",
          "name": "_isLong",
          "type": "bool"
        }
      ],
      "name": "getEntryFundingRate",
      "outputs": [
        {
          "internalType": "uint256",
          "name": "",
          "type": "uint256"
        }
      ],
      "stateMutability": "view",
      "type": "function"
    },
    {
      "inputs": [
        {
          "internalType": "address",
          "name": "_token",
          "type": "address"
        },
        {
          "internalType": "uint256",
          "name": "_usdcDelta",
          "type": "uint256"
        },
        {
          "internalType": "uint256",
          "name": "_feeBasisPoints",
          "type": "uint256"
        },
        {
          "internalType": "uint256",
          "name": "_taxBasisPoints",
          "type": "uint256"
        },
        {
          "internalType": "bool",
          "name": "_increment",
          "type": "bool"
        }
      ],
      "name": "getFeeBasisPoints",
      "outputs": [
        {
          "internalType": "uint256",
          "name": "",
          "type": "uint256"
        }
      ],
      "stateMutability": "view",
      "type": "function"
    },
    {
      "inputs": [
        {
          "internalType": "address",
          "name": "_account",
          "type": "address"
        },
        {
          "internalType": "address",
          "name": "_collateralToken",
          "type": "address"
        },
        {
          "internalType": "address",
          "name": "_indexToken",
          "type": "address"
        },
        {
          "internalType": "bool",
          "name": "_isLong",
          "type": "bool"
        },
        {
          "internalType": "uint256",
          "name": "_size",
          "type": "uint256"
        },
        {
          "internalType": "uint256",
          "name": "_entryFundingRate",
          "type": "uint256"
        }
      ],
      "name": "getFundingFee",
      "outputs": [
        {
          "internalType": "uint256",
          "name": "",
          "type": "uint256"
        }
      ],
      "stateMutability": "view",
      "type": "function"
    },
    {
      "inputs": [
        {
          "internalType": "address",
          "name": "_token",
          "type": "address"
        }
      ],
      "name": "getGlobalShortDelta",
      "outputs": [
        {
          "internalType": "bool",
          "name": "",
          "type": "bool"
        },
        {
          "internalType": "uint256",
          "name": "",
          "type": "uint256"
        }
      ],
      "stateMutability": "view",
      "type": "function"
    },
    {
      "inputs": [
        {
          "internalType": "address",
          "name": "_token",
          "type": "address"
        }
      ],
      "name": "getMaxPrice",
      "outputs": [
        {
          "internalType": "uint256",
          "name": "",
          "type": "uint256"
        }
      ],
      "stateMutability": "view",
      "type": "function"
    },
    {
      "inputs": [
        {
          "internalType": "address",
          "name": "_token",
          "type": "address"
        }
      ],
      "name": "getMinPrice",
      "outputs": [
        {
          "internalType": "uint256",
          "name": "",
          "type": "uint256"
        }
      ],
      "stateMutability": "view",
      "type": "function"
    },
    {
      "inputs": [
        {
          "internalType": "address",
          "name": "_indexToken",
          "type": "address"
        },
        {
          "internalType": "uint256",
          "name": "_size",
          "type": "uint256"
        },
        {
          "internalType": "uint256",
          "name": "_averagePrice",
          "type": "uint256"
        },
        {
          "internalType": "bool",
          "name": "_isLong",
          "type": "bool"
        },
        {
          "internalType": "uint256",
          "name": "_nextPrice",
          "type": "uint256"
        },
        {
          "internalType": "uint256",
          "name": "_sizeDelta",
          "type": "uint256"
        },
        {
          "internalType": "uint256",
          "name": "_lastIncreasedTime",
          "type": "uint256"
        }
      ],
      "name": "getNextAveragePrice",
      "outputs": [
        {
          "internalType": "uint256",
          "name": "",
          "type": "uint256"
        }
      ],
      "stateMutability": "view",
      "type": "function"
    },
    {
      "inputs": [
        {
          "internalType": "address",
          "name": "_token",
          "type": "address"
        }
      ],
      "name": "getNextFundingRate",
      "outputs": [
        {
          "internalType": "uint256",
          "name": "",
          "type": "uint256"
        }
      ],
      "stateMutability": "view",
      "type": "function"
    },
    {
      "inputs": [
        {
          "internalType": "address",
          "name": "_indexToken",
          "type": "address"
        },
        {
          "internalType": "uint256",
          "name": "_nextPrice",
          "type": "uint256"
        },
        {
          "internalType": "uint256",
          "name": "_sizeDelta",
          "type": "uint256"
        }
      ],
      "name": "getNextGlobalShortAveragePrice",
      "outputs": [
        {
          "internalType": "uint256",
          "name": "",
          "type": "uint256"
        }
      ],
      "stateMutability": "view",
      "type": "function"
    },
    {
      "inputs": [
        {
          "internalType": "address",
          "name": "_account",
          "type": "address"
        },
        {
          "internalType": "address",
          "name": "_collateralToken",
          "type": "address"
        },
        {
          "internalType": "address",
          "name": "_indexToken",
          "type": "address"
        },
        {
          "internalType": "bool",
          "name": "_isLong",
          "type": "bool"
        }
      ],
      "name": "getPosition",
      "outputs": [
        {
          "internalType": "uint256",
          "name": "",
          "type": "uint256"
        },
        {
          "internalType": "uint256",
          "name": "",
          "type": "uint256"
        },
        {
          "internalType": "uint256",
          "name": "",
          "type": "uint256"
        },
        {
          "internalType": "uint256",
          "name": "",
          "type": "uint256"
        },
        {
          "internalType": "uint256",
          "name": "",
          "type": "uint256"
        },
        {
          "internalType": "uint256",
          "name": "",
          "type": "uint256"
        },
        {
          "internalType": "bool",
          "name": "",
          "type": "bool"
        },
        {
          "internalType": "uint256",
          "name": "",
          "type": "uint256"
        }
      ],
      "stateMutability": "view",
      "type": "function"
    },
    {
      "inputs": [
        {
          "internalType": "address",
          "name": "_account",
          "type": "address"
        },
        {
          "internalType": "address",
          "name": "_collateralToken",
          "type": "address"
        },
        {
          "internalType": "address",
          "name": "_indexToken",
          "type": "address"
        },
        {
          "internalType": "bool",
          "name": "_isLong",
          "type": "bool"
        }
      ],
      "name": "getPositionDelta",
      "outputs": [
        {
          "internalType": "bool",
          "name": "",
          "type": "bool"
        },
        {
          "internalType": "uint256",
          "name": "",
          "type": "uint256"
        }
      ],
      "stateMutability": "view",
      "type": "function"
    },
    {
      "inputs": [
        {
          "internalType": "address",
          "name": "_account",
          "type": "address"
        },
        {
          "internalType": "address",
          "name": "_collateralToken",
          "type": "address"
        },
        {
          "internalType": "address",
          "name": "_indexToken",
          "type": "address"
        },
        {
          "internalType": "bool",
          "name": "_isLong",
          "type": "bool"
        },
        {
          "internalType": "uint256",
          "name": "_sizeDelta",
          "type": "uint256"
        }
      ],
      "name": "getPositionFee",
      "outputs": [
        {
          "internalType": "uint256",
          "name": "",
          "type": "uint256"
        }
      ],
      "stateMutability": "view",
      "type": "function"
    },
    {
      "inputs": [
        {
          "internalType": "address",
          "name": "_account",
          "type": "address"
        },
        {
          "internalType": "address",
          "name": "_collateralToken",
          "type": "address"
        },
        {
          "internalType": "address",
          "name": "_indexToken",
          "type": "address"
        },
        {
          "internalType": "bool",
          "name": "_isLong",
          "type": "bool"
        }
      ],
      "name": "getPositionKey",
      "outputs": [
        {
          "internalType": "bytes32",
          "name": "",
          "type": "bytes32"
        }
      ],
      "stateMutability": "pure",
      "type": "function"
    },
    {
      "inputs": [
        {
          "internalType": "address",
          "name": "_account",
          "type": "address"
        },
        {
          "internalType": "address",
          "name": "_collateralToken",
          "type": "address"
        },
        {
          "internalType": "address",
          "name": "_indexToken",
          "type": "address"
        },
        {
          "internalType": "bool",
          "name": "_isLong",
          "type": "bool"
        }
      ],
      "name": "getPositionLeverage",
      "outputs": [
        {
          "internalType": "uint256",
          "name": "",
          "type": "uint256"
        }
      ],
      "stateMutability": "view",
      "type": "function"
    },
    {
      "inputs": [
        {
          "internalType": "address",
          "name": "_token",
          "type": "address"
        },
        {
          "internalType": "uint256",
          "name": "_usdcAmount",
          "type": "uint256"
        }
      ],
      "name": "getRedemptionAmount",
      "outputs": [
        {
          "internalType": "uint256",
          "name": "",
          "type": "uint256"
        }
      ],
      "stateMutability": "view",
      "type": "function"
    },
    {
      "inputs": [
        {
          "internalType": "address",
          "name": "_token",
          "type": "address"
        }
      ],
      "name": "getRedemptionCollateral",
      "outputs": [
        {
          "internalType": "uint256",
          "name": "",
          "type": "uint256"
        }
      ],
      "stateMutability": "view",
      "type": "function"
    },
    {
      "inputs": [
        {
          "internalType": "address",
          "name": "_token",
          "type": "address"
        }
      ],
      "name": "getRedemptionCollateralUsd",
      "outputs": [
        {
          "internalType": "uint256",
          "name": "",
          "type": "uint256"
        }
      ],
      "stateMutability": "view",
      "type": "function"
    },
    {
      "inputs": [
        {
          "internalType": "address",
          "name": "_token",
          "type": "address"
        }
      ],
      "name": "getTargetUsdcAmount",
      "outputs": [
        {
          "internalType": "uint256",
          "name": "",
          "type": "uint256"
        }
      ],
      "stateMutability": "view",
      "type": "function"
    },
    {
      "inputs": [
        {
          "internalType": "address",
          "name": "_token",
          "type": "address"
        }
      ],
      "name": "getUtilisation",
      "outputs": [
        {
          "internalType": "uint256",
          "name": "",
          "type": "uint256"
        }
      ],
      "stateMutability": "view",
      "type": "function"
    },
    {
      "inputs": [
        {
          "internalType": "address",
          "name": "",
          "type": "address"
        }
      ],
      "name": "globalShortAveragePrices",
      "outputs": [
        {
          "internalType": "uint256",
          "name": "",
          "type": "uint256"
        }
      ],
      "stateMutability": "view",
      "type": "function"
    },
    {
      "inputs": [
        {
          "internalType": "address",
          "name": "",
          "type": "address"
        }
      ],
      "name": "globalShortSizes",
      "outputs": [
        {
          "internalType": "uint256",
          "name": "",
          "type": "uint256"
        }
      ],
      "stateMutability": "view",
      "type": "function"
    },
    {
      "inputs": [],
      "name": "gov",
      "outputs": [
        {
          "internalType": "address",
          "name": "",
          "type": "address"
        }
      ],
      "stateMutability": "view",
      "type": "function"
    },
    {
      "inputs": [
        {
          "internalType": "address",
          "name": "",
          "type": "address"
        }
      ],
      "name": "guaranteedUsd",
      "outputs": [
        {
          "internalType": "uint256",
          "name": "",
          "type": "uint256"
        }
      ],
      "stateMutability": "view",
      "type": "function"
    },
    {
      "inputs": [],
      "name": "hasDynamicFees",
      "outputs": [
        {
          "internalType": "bool",
          "name": "",
          "type": "bool"
        }
      ],
      "stateMutability": "view",
      "type": "function"
    },
    {
      "inputs": [],
      "name": "inManagerMode",
      "outputs": [
        {
          "internalType": "bool",
          "name": "",
          "type": "bool"
        }
      ],
      "stateMutability": "view",
      "type": "function"
    },
    {
      "inputs": [],
      "name": "inPrivateLiquidationMode",
      "outputs": [
        {
          "internalType": "bool",
          "name": "",
          "type": "bool"
        }
      ],
      "stateMutability": "view",
      "type": "function"
    },
    {
      "inputs": [],
      "name": "includeAmmPrice",
      "outputs": [
        {
          "internalType": "bool",
          "name": "",
          "type": "bool"
        }
      ],
      "stateMutability": "view",
      "type": "function"
    },
    {
      "inputs": [
        {
          "internalType": "address",
          "name": "_account",
          "type": "address"
        },
        {
          "internalType": "address",
          "name": "_collateralToken",
          "type": "address"
        },
        {
          "internalType": "address",
          "name": "_indexToken",
          "type": "address"
        },
        {
          "internalType": "uint256",
          "name": "_sizeDelta",
          "type": "uint256"
        },
        {
          "internalType": "bool",
          "name": "_isLong",
          "type": "bool"
        }
      ],
      "name": "increasePosition",
      "outputs": [],
      "stateMutability": "nonpayable",
      "type": "function"
    },
    {
      "inputs": [
        {
          "internalType": "address",
          "name": "_router",
          "type": "address"
        },
        {
          "internalType": "address",
          "name": "_usdc",
          "type": "address"
        },
        {
          "internalType": "address",
          "name": "_priceFeed",
          "type": "address"
        },
        {
          "internalType": "uint256",
          "name": "_liquidationFeeUsd",
          "type": "uint256"
        },
        {
          "internalType": "uint256",
          "name": "_fundingRateFactor",
          "type": "uint256"
        },
        {
          "internalType": "uint256",
          "name": "_stableFundingRateFactor",
          "type": "uint256"
        }
      ],
      "name": "initialize",
      "outputs": [],
      "stateMutability": "nonpayable",
      "type": "function"
    },
    {
      "inputs": [],
      "name": "isInitialized",
      "outputs": [
        {
          "internalType": "bool",
          "name": "",
          "type": "bool"
        }
      ],
      "stateMutability": "view",
      "type": "function"
    },
    {
      "inputs": [],
      "name": "isLeverageEnabled",
      "outputs": [
        {
          "internalType": "bool",
          "name": "",
          "type": "bool"
        }
      ],
      "stateMutability": "view",
      "type": "function"
    },
    {
      "inputs": [
        {
          "internalType": "address",
          "name": "",
          "type": "address"
        }
      ],
      "name": "isLiquidator",
      "outputs": [
        {
          "internalType": "bool",
          "name": "",
          "type": "bool"
        }
      ],
      "stateMutability": "view",
      "type": "function"
    },
    {
      "inputs": [
        {
          "internalType": "address",
          "name": "",
          "type": "address"
        }
      ],
      "name": "isManager",
      "outputs": [
        {
          "internalType": "bool",
          "name": "",
          "type": "bool"
        }
      ],
      "stateMutability": "view",
      "type": "function"
    },
    {
      "inputs": [],
      "name": "isSwapEnabled",
      "outputs": [
        {
          "internalType": "bool",
          "name": "",
          "type": "bool"
        }
      ],
      "stateMutability": "view",
      "type": "function"
    },
    {
      "inputs": [
        {
          "internalType": "address",
          "name": "",
          "type": "address"
        }
      ],
      "name": "lastFundingTimes",
      "outputs": [
        {
          "internalType": "uint256",
          "name": "",
          "type": "uint256"
        }
      ],
      "stateMutability": "view",
      "type": "function"
    },
    {
      "inputs": [
        {
          "internalType": "address",
          "name": "_account",
          "type": "address"
        },
        {
          "internalType": "address",
          "name": "_collateralToken",
          "type": "address"
        },
        {
          "internalType": "address",
          "name": "_indexToken",
          "type": "address"
        },
        {
          "internalType": "bool",
          "name": "_isLong",
          "type": "bool"
        },
        {
          "internalType": "address",
          "name": "_feeReceiver",
          "type": "address"
        }
      ],
      "name": "liquidatePosition",
      "outputs": [],
      "stateMutability": "nonpayable",
      "type": "function"
    },
    {
      "inputs": [],
      "name": "liquidationFeeUsd",
      "outputs": [
        {
          "internalType": "uint256",
          "name": "",
          "type": "uint256"
        }
      ],
      "stateMutability": "view",
      "type": "function"
    },
    {
      "inputs": [],
      "name": "marginFeeBasisPoints",
      "outputs": [
        {
          "internalType": "uint256",
          "name": "",
          "type": "uint256"
        }
      ],
      "stateMutability": "view",
      "type": "function"
    },
    {
      "inputs": [],
      "name": "maxGasPrice",
      "outputs": [
        {
          "internalType": "uint256",
          "name": "",
          "type": "uint256"
        }
      ],
      "stateMutability": "view",
      "type": "function"
    },
    {
      "inputs": [
        {
          "internalType": "address",
          "name": "",
          "type": "address"
        }
      ],
      "name": "maxGlobalShortSizes",
      "outputs": [
        {
          "internalType": "uint256",
          "name": "",
          "type": "uint256"
        }
      ],
      "stateMutability": "view",
      "type": "function"
    },
    {
      "inputs": [],
      "name": "maxLeverage",
      "outputs": [
        {
          "internalType": "uint256",
          "name": "",
          "type": "uint256"
        }
      ],
      "stateMutability": "view",
      "type": "function"
    },
    {
      "inputs": [
        {
          "internalType": "address",
          "name": "",
          "type": "address"
        }
      ],
      "name": "maxUsdcAmounts",
      "outputs": [
        {
          "internalType": "uint256",
          "name": "",
          "type": "uint256"
        }
      ],
      "stateMutability": "view",
      "type": "function"
    },
    {
      "inputs": [
        {
          "internalType": "address",
          "name": "",
          "type": "address"
        }
      ],
      "name": "minProfitBasisPoints",
      "outputs": [
        {
          "internalType": "uint256",
          "name": "",
          "type": "uint256"
        }
      ],
      "stateMutability": "view",
      "type": "function"
    },
    {
      "inputs": [],
      "name": "minProfitTime",
      "outputs": [
        {
          "internalType": "uint256",
          "name": "",
          "type": "uint256"
        }
      ],
      "stateMutability": "view",
      "type": "function"
    },
    {
      "inputs": [],
      "name": "mintBurnFeeBasisPoints",
      "outputs": [
        {
          "internalType": "uint256",
          "name": "",
          "type": "uint256"
        }
      ],
      "stateMutability": "view",
      "type": "function"
    },
    {
      "inputs": [
        {
          "internalType": "address",
          "name": "",
          "type": "address"
        }
      ],
      "name": "poolAmounts",
      "outputs": [
        {
          "internalType": "uint256",
          "name": "",
          "type": "uint256"
        }
      ],
      "stateMutability": "view",
      "type": "function"
    },
    {
      "inputs": [
        {
          "internalType": "bytes32",
          "name": "",
          "type": "bytes32"
        }
      ],
      "name": "positions",
      "outputs": [
        {
          "internalType": "uint256",
          "name": "size",
          "type": "uint256"
        },
        {
          "internalType": "uint256",
          "name": "collateral",
          "type": "uint256"
        },
        {
          "internalType": "uint256",
          "name": "averagePrice",
          "type": "uint256"
        },
        {
          "internalType": "uint256",
          "name": "entryFundingRate",
          "type": "uint256"
        },
        {
          "internalType": "uint256",
          "name": "reserveAmount",
          "type": "uint256"
        },
        {
          "internalType": "int256",
          "name": "realisedPnl",
          "type": "int256"
        },
        {
          "internalType": "uint256",
          "name": "lastIncreasedTime",
          "type": "uint256"
        }
      ],
      "stateMutability": "view",
      "type": "function"
    },
    {
      "inputs": [],
      "name": "priceFeed",
      "outputs": [
        {
          "internalType": "address",
          "name": "",
          "type": "address"
        }
      ],
      "stateMutability": "view",
      "type": "function"
    },
    {
      "inputs": [
        {
          "internalType": "address",
          "name": "_router",
          "type": "address"
        }
      ],
      "name": "removeRouter",
      "outputs": [],
      "stateMutability": "nonpayable",
      "type": "function"
    },
    {
      "inputs": [
        {
          "internalType": "address",
          "name": "",
          "type": "address"
        }
      ],
      "name": "reservedAmounts",
      "outputs": [
        {
          "internalType": "uint256",
          "name": "",
          "type": "uint256"
        }
      ],
      "stateMutability": "view",
      "type": "function"
    },
    {
      "inputs": [],
      "name": "router",
      "outputs": [
        {
          "internalType": "address",
          "name": "",
          "type": "address"
        }
      ],
      "stateMutability": "view",
      "type": "function"
    },
    {
      "inputs": [
        {
          "internalType": "address",
          "name": "_token",
          "type": "address"
        },
        {
          "internalType": "address",
          "name": "_receiver",
          "type": "address"
        }
      ],
      "name": "sellUSDC",
      "outputs": [
        {
          "internalType": "uint256",
          "name": "",
          "type": "uint256"
        }
      ],
      "stateMutability": "nonpayable",
      "type": "function"
    },
    {
      "inputs": [
        {
          "internalType": "address",
          "name": "_token",
          "type": "address"
        },
        {
          "internalType": "uint256",
          "name": "_amount",
          "type": "uint256"
        }
      ],
      "name": "setBufferAmount",
      "outputs": [],
      "stateMutability": "nonpayable",
      "type": "function"
    },
    {
      "inputs": [
        {
          "internalType": "uint256",
          "name": "_errorCode",
          "type": "uint256"
        },
        {
          "internalType": "string",
          "name": "_error",
          "type": "string"
        }
      ],
      "name": "setError",
      "outputs": [],
      "stateMutability": "nonpayable",
      "type": "function"
    },
    {
      "inputs": [
        {
          "internalType": "address",
          "name": "_errorController",
          "type": "address"
        }
      ],
      "name": "setErrorController",
      "outputs": [],
      "stateMutability": "nonpayable",
      "type": "function"
    },
    {
      "inputs": [
        {
          "internalType": "uint256",
          "name": "_taxBasisPoints",
          "type": "uint256"
        },
        {
          "internalType": "uint256",
          "name": "_stableTaxBasisPoints",
          "type": "uint256"
        },
        {
          "internalType": "uint256",
          "name": "_mintBurnFeeBasisPoints",
          "type": "uint256"
        },
        {
          "internalType": "uint256",
          "name": "_swapFeeBasisPoints",
          "type": "uint256"
        },
        {
          "internalType": "uint256",
          "name": "_stableSwapFeeBasisPoints",
          "type": "uint256"
        },
        {
          "internalType": "uint256",
          "name": "_marginFeeBasisPoints",
          "type": "uint256"
        },
        {
          "internalType": "uint256",
          "name": "_liquidationFeeUsd",
          "type": "uint256"
        },
        {
          "internalType": "uint256",
          "name": "_minProfitTime",
          "type": "uint256"
        },
        {
          "internalType": "bool",
          "name": "_hasDynamicFees",
          "type": "bool"
        }
      ],
      "name": "setFees",
      "outputs": [],
      "stateMutability": "nonpayable",
      "type": "function"
    },
    {
      "inputs": [
        {
          "internalType": "uint256",
          "name": "_fundingInterval",
          "type": "uint256"
        },
        {
          "internalType": "uint256",
          "name": "_fundingRateFactor",
          "type": "uint256"
        },
        {
          "internalType": "uint256",
          "name": "_stableFundingRateFactor",
          "type": "uint256"
        }
      ],
      "name": "setFundingRate",
      "outputs": [],
      "stateMutability": "nonpayable",
      "type": "function"
    },
    {
      "inputs": [
        {
          "internalType": "address",
          "name": "_gov",
          "type": "address"
        }
      ],
      "name": "setGov",
      "outputs": [],
      "stateMutability": "nonpayable",
      "type": "function"
    },
    {
      "inputs": [
        {
          "internalType": "bool",
          "name": "_inManagerMode",
          "type": "bool"
        }
      ],
      "name": "setInManagerMode",
      "outputs": [],
      "stateMutability": "nonpayable",
      "type": "function"
    },
    {
      "inputs": [
        {
          "internalType": "bool",
          "name": "_inPrivateLiquidationMode",
          "type": "bool"
        }
      ],
      "name": "setInPrivateLiquidationMode",
      "outputs": [],
      "stateMutability": "nonpayable",
      "type": "function"
    },
    {
      "inputs": [
        {
          "internalType": "bool",
          "name": "_isLeverageEnabled",
          "type": "bool"
        }
      ],
      "name": "setIsLeverageEnabled",
      "outputs": [],
      "stateMutability": "nonpayable",
      "type": "function"
    },
    {
      "inputs": [
        {
          "internalType": "bool",
          "name": "_isSwapEnabled",
          "type": "bool"
        }
      ],
      "name": "setIsSwapEnabled",
      "outputs": [],
      "stateMutability": "nonpayable",
      "type": "function"
    },
    {
      "inputs": [
        {
          "internalType": "address",
          "name": "_liquidator",
          "type": "address"
        },
        {
          "internalType": "bool",
          "name": "_isActive",
          "type": "bool"
        }
      ],
      "name": "setLiquidator",
      "outputs": [],
      "stateMutability": "nonpayable",
      "type": "function"
    },
    {
      "inputs": [
        {
          "internalType": "address",
          "name": "_manager",
          "type": "address"
        },
        {
          "internalType": "bool",
          "name": "_isManager",
          "type": "bool"
        }
      ],
      "name": "setManager",
      "outputs": [],
      "stateMutability": "nonpayable",
      "type": "function"
    },
    {
      "inputs": [
        {
          "internalType": "uint256",
          "name": "_maxGasPrice",
          "type": "uint256"
        }
      ],
      "name": "setMaxGasPrice",
      "outputs": [],
      "stateMutability": "nonpayable",
      "type": "function"
    },
    {
      "inputs": [
        {
          "internalType": "address",
          "name": "_token",
          "type": "address"
        },
        {
          "internalType": "uint256",
          "name": "_amount",
          "type": "uint256"
        }
      ],
      "name": "setMaxGlobalShortSize",
      "outputs": [],
      "stateMutability": "nonpayable",
      "type": "function"
    },
    {
      "inputs": [
        {
          "internalType": "uint256",
          "name": "_maxLeverage",
          "type": "uint256"
        }
      ],
      "name": "setMaxLeverage",
      "outputs": [],
      "stateMutability": "nonpayable",
      "type": "function"
    },
    {
      "inputs": [
        {
          "internalType": "address",
          "name": "_priceFeed",
          "type": "address"
        }
      ],
      "name": "setPriceFeed",
      "outputs": [],
      "stateMutability": "nonpayable",
      "type": "function"
    },
    {
      "inputs": [
        {
          "internalType": "address",
          "name": "_token",
          "type": "address"
        },
        {
          "internalType": "uint256",
          "name": "_tokenDecimals",
          "type": "uint256"
        },
        {
          "internalType": "uint256",
          "name": "_tokenWeight",
          "type": "uint256"
        },
        {
          "internalType": "uint256",
          "name": "_minProfitBps",
          "type": "uint256"
        },
        {
          "internalType": "uint256",
          "name": "_maxUsdcAmount",
          "type": "uint256"
        },
        {
          "internalType": "bool",
          "name": "_isStable",
          "type": "bool"
        },
        {
          "internalType": "bool",
          "name": "_isShortable",
          "type": "bool"
        }
      ],
      "name": "setTokenConfig",
      "outputs": [],
      "stateMutability": "nonpayable",
      "type": "function"
    },
    {
      "inputs": [
        {
          "internalType": "address",
          "name": "_token",
          "type": "address"
        },
        {
          "internalType": "uint256",
          "name": "_amount",
          "type": "uint256"
        }
      ],
      "name": "setUsdcAmount",
      "outputs": [],
      "stateMutability": "nonpayable",
      "type": "function"
    },
    {
      "inputs": [
        {
          "internalType": "contract IVaultUtils",
          "name": "_vaultUtils",
          "type": "address"
        }
      ],
      "name": "setVaultUtils",
      "outputs": [],
      "stateMutability": "nonpayable",
      "type": "function"
    },
    {
      "inputs": [
        {
          "internalType": "address",
          "name": "",
          "type": "address"
        }
      ],
      "name": "shortableTokens",
      "outputs": [
        {
          "internalType": "bool",
          "name": "",
          "type": "bool"
        }
      ],
      "stateMutability": "view",
      "type": "function"
    },
    {
      "inputs": [],
      "name": "stableFundingRateFactor",
      "outputs": [
        {
          "internalType": "uint256",
          "name": "",
          "type": "uint256"
        }
      ],
      "stateMutability": "view",
      "type": "function"
    },
    {
      "inputs": [],
      "name": "stableSwapFeeBasisPoints",
      "outputs": [
        {
          "internalType": "uint256",
          "name": "",
          "type": "uint256"
        }
      ],
      "stateMutability": "view",
      "type": "function"
    },
    {
      "inputs": [],
      "name": "stableTaxBasisPoints",
      "outputs": [
        {
          "internalType": "uint256",
          "name": "",
          "type": "uint256"
        }
      ],
      "stateMutability": "view",
      "type": "function"
    },
    {
      "inputs": [
        {
          "internalType": "address",
          "name": "",
          "type": "address"
        }
      ],
      "name": "stableTokens",
      "outputs": [
        {
          "internalType": "bool",
          "name": "",
          "type": "bool"
        }
      ],
      "stateMutability": "view",
      "type": "function"
    },
    {
      "inputs": [
        {
          "internalType": "address",
          "name": "_tokenIn",
          "type": "address"
        },
        {
          "internalType": "address",
          "name": "_tokenOut",
          "type": "address"
        },
        {
          "internalType": "address",
          "name": "_receiver",
          "type": "address"
        }
      ],
      "name": "swap",
      "outputs": [
        {
          "internalType": "uint256",
          "name": "",
          "type": "uint256"
        }
      ],
      "stateMutability": "nonpayable",
      "type": "function"
    },
    {
      "inputs": [],
      "name": "swapFeeBasisPoints",
      "outputs": [
        {
          "internalType": "uint256",
          "name": "",
          "type": "uint256"
        }
      ],
      "stateMutability": "view",
      "type": "function"
    },
    {
      "inputs": [],
      "name": "taxBasisPoints",
      "outputs": [
        {
          "internalType": "uint256",
          "name": "",
          "type": "uint256"
        }
      ],
      "stateMutability": "view",
      "type": "function"
    },
    {
      "inputs": [
        {
          "internalType": "address",
          "name": "",
          "type": "address"
        }
      ],
      "name": "tokenBalances",
      "outputs": [
        {
          "internalType": "uint256",
          "name": "",
          "type": "uint256"
        }
      ],
      "stateMutability": "view",
      "type": "function"
    },
    {
      "inputs": [
        {
          "internalType": "address",
          "name": "",
          "type": "address"
        }
      ],
      "name": "tokenDecimals",
      "outputs": [
        {
          "internalType": "uint256",
          "name": "",
          "type": "uint256"
        }
      ],
      "stateMutability": "view",
      "type": "function"
    },
    {
      "inputs": [
        {
          "internalType": "address",
          "name": "_token",
          "type": "address"
        },
        {
          "internalType": "uint256",
          "name": "_tokenAmount",
          "type": "uint256"
        }
      ],
      "name": "tokenToUsdMin",
      "outputs": [
        {
          "internalType": "uint256",
          "name": "",
          "type": "uint256"
        }
      ],
      "stateMutability": "view",
      "type": "function"
    },
    {
      "inputs": [
        {
          "internalType": "address",
          "name": "",
          "type": "address"
        }
      ],
      "name": "tokenWeights",
      "outputs": [
        {
          "internalType": "uint256",
          "name": "",
          "type": "uint256"
        }
      ],
      "stateMutability": "view",
      "type": "function"
    },
    {
      "inputs": [],
      "name": "totalTokenWeights",
      "outputs": [
        {
          "internalType": "uint256",
          "name": "",
          "type": "uint256"
        }
      ],
      "stateMutability": "view",
      "type": "function"
    },
    {
      "inputs": [
        {
          "internalType": "address",
          "name": "_collateralToken",
          "type": "address"
        },
        {
          "internalType": "address",
          "name": "_indexToken",
          "type": "address"
        }
      ],
      "name": "updateCumulativeFundingRate",
      "outputs": [],
      "stateMutability": "nonpayable",
      "type": "function"
    },
    {
      "inputs": [
        {
          "internalType": "address",
          "name": "_newVault",
          "type": "address"
        },
        {
          "internalType": "address",
          "name": "_token",
          "type": "address"
        },
        {
          "internalType": "uint256",
          "name": "_amount",
          "type": "uint256"
        }
      ],
      "name": "upgradeVault",
      "outputs": [],
      "stateMutability": "nonpayable",
      "type": "function"
    },
    {
      "inputs": [
        {
          "internalType": "address",
          "name": "_token",
          "type": "address"
        },
        {
          "internalType": "uint256",
          "name": "_usdAmount",
          "type": "uint256"
        },
        {
          "internalType": "uint256",
          "name": "_price",
          "type": "uint256"
        }
      ],
      "name": "usdToToken",
      "outputs": [
        {
          "internalType": "uint256",
          "name": "",
          "type": "uint256"
        }
      ],
      "stateMutability": "view",
      "type": "function"
    },
    {
      "inputs": [
        {
          "internalType": "address",
          "name": "_token",
          "type": "address"
        },
        {
          "internalType": "uint256",
          "name": "_usdAmount",
          "type": "uint256"
        }
      ],
      "name": "usdToTokenMax",
      "outputs": [
        {
          "internalType": "uint256",
          "name": "",
          "type": "uint256"
        }
      ],
      "stateMutability": "view",
      "type": "function"
    },
    {
      "inputs": [
        {
          "internalType": "address",
          "name": "_token",
          "type": "address"
        },
        {
          "internalType": "uint256",
          "name": "_usdAmount",
          "type": "uint256"
        }
      ],
      "name": "usdToTokenMin",
      "outputs": [
        {
          "internalType": "uint256",
          "name": "",
          "type": "uint256"
        }
      ],
      "stateMutability": "view",
      "type": "function"
    },
    {
      "inputs": [],
      "name": "usdc",
      "outputs": [
        {
          "internalType": "address",
          "name": "",
          "type": "address"
        }
      ],
      "stateMutability": "view",
      "type": "function"
    },
    {
      "inputs": [
        {
          "internalType": "address",
          "name": "",
          "type": "address"
        }
      ],
      "name": "usdcAmounts",
      "outputs": [
        {
          "internalType": "uint256",
          "name": "",
          "type": "uint256"
        }
      ],
      "stateMutability": "view",
      "type": "function"
    },
    {
      "inputs": [],
      "name": "useSwapPricing",
      "outputs": [
        {
          "internalType": "bool",
          "name": "",
          "type": "bool"
        }
      ],
      "stateMutability": "view",
      "type": "function"
    },
    {
      "inputs": [
        {
          "internalType": "address",
          "name": "_account",
          "type": "address"
        },
        {
          "internalType": "address",
          "name": "_collateralToken",
          "type": "address"
        },
        {
          "internalType": "address",
          "name": "_indexToken",
          "type": "address"
        },
        {
          "internalType": "bool",
          "name": "_isLong",
          "type": "bool"
        },
        {
          "internalType": "bool",
          "name": "_raise",
          "type": "bool"
        }
      ],
      "name": "validateLiquidation",
      "outputs": [
        {
          "internalType": "uint256",
          "name": "",
          "type": "uint256"
        },
        {
          "internalType": "uint256",
          "name": "",
          "type": "uint256"
        }
      ],
      "stateMutability": "view",
      "type": "function"
    },
    {
      "inputs": [],
      "name": "vaultUtils",
      "outputs": [
        {
          "internalType": "contract IVaultUtils",
          "name": "",
          "type": "address"
        }
      ],
      "stateMutability": "view",
      "type": "function"
    },
    {
      "inputs": [],
      "name": "whitelistedTokenCount",
      "outputs": [
        {
          "internalType": "uint256",
          "name": "",
          "type": "uint256"
        }
      ],
      "stateMutability": "view",
      "type": "function"
    },
    {
      "inputs": [
        {
          "internalType": "address",
          "name": "",
          "type": "address"
        }
      ],
      "name": "whitelistedTokens",
      "outputs": [
        {
          "internalType": "bool",
          "name": "",
          "type": "bool"
        }
      ],
      "stateMutability": "view",
      "type": "function"
    },
    {
      "inputs": [
        {
          "internalType": "address",
          "name": "_token",
          "type": "address"
        },
        {
          "internalType": "address",
          "name": "_receiver",
          "type": "address"
        }
      ],
      "name": "withdrawFees",
      "outputs": [
        {
          "internalType": "uint256",
          "name": "",
          "type": "uint256"
        }
      ],
      "stateMutability": "nonpayable",
      "type": "function"
    }
  ],
  "bytecode": "0x60806040526001805462ff00001961ff00199091166101001716620100001781556207a1206008556032600a9081556014600b55601e600c819055600d556004600e55600f556011805460ff199081169091556170806012556016805463ffffff0019921690921716905534801561007657600080fd5b506001600055600680546001600160a01b03191633179055615f09806200009e6000396000f3fe608060405234801561001057600080fd5b50600436106105995760003560e01c806382a08490116102e9578063c65bc7b11161018f578063c65bc7b114611205578063c7e074c31461122b578063cea0c3281461126b578063cfad57a2146112a1578063d2fa635e146112c7578063d3127e63146112e4578063d54d5a9f14611301578063d675d3e014611360578063d8f897c31461138e578063d9ac4225146113b4578063da76524c146113bc578063daf9c21014611406578063db3555fb1461142c578063db97495f14611452578063dc8f5fac1461149e578063de2ea948146114a6578063df73a267146114ee578063e124e6d2146114f6578063e468baf01461151c578063e67f59a714611539578063efa10a6e1461155f578063f07456ce1461158b578063f07bbf77146115b1578063f2555278146115d0578063f3ae2415146115fe578063f887ea4014611624578063fa12dbc01461162c578063fbfded6d1461165e578063fce28c101461168c578063fdaf6ac314611694578063fed1a606146116d857610599565b806382a0849014610e425780638585f4d214610e9657806388b1fbdf14610ec25780638a27d46814610ee85780638a39735a1461061a5780638a78daa814610f115780638ee573ac14610f375780638f7b840414610f5d5780639060b1ca14610f835780639331621214610f8b57806395082d2514610fc35780639698d25a14610fcb5780639849e41214610ff15780639899cd0214610ff95780639d7432ca146110255780639f392eb314611057578063a22f23921461105f578063a27debeb14611067578063a42ab3d21461108d578063a5e90eee146110b9578063a93acac2146110e7578063ab08c1c61461110d578063ab2f3ad414611115578063ae3302c21461113b578063b06423f314611143578063b136ca491461114b578063b1cc53ab14611171578063b364accb146111a9578063c1419def146111cf578063c3c7b9e9146111d7578063c4f718bf146111fd57610599565b806345a6f3701161044e57806345a6f3701461095a57806348d91abf146109b357806348f35cbb146109f75780634914dc3e146109ff5780634a3f088d14610a255780634a993ee914610aa65780634befe2ca14610acc5780634d47b30414610ad4578063514ea4bf14610adc57806351723e8214610b31578063523fba7f14610b6f578063529a356f14610b9557806352f55eed14610bbb5780635c07eaab14610be15780635f7bc11914610c215780636092219914610c4757806362287a3214610c755780636274980314610c7d57806364fa8fce14610ca35780636abbe0c814610ccf5780636ae0b15414610cd75780636be6026b14610cfd57806370fac77b14610d0557806371089f4d14610d33578063724e78da14610d59578063728cdbca14610d7f578063741bef1a14610dc75780637a210a2b14610dcf5780637c2eb9f714610dd75780637c3e61f314610df657806381a612d614610e1c57610599565b806304fef1db1461059e57806307c58752146105d65780630842b076146105de5780630a48d5a9146105e657806310eb56c214610612578063126082cf1461061a57806312d43a5114610622578063134ca63b14610646578063174d26941461064e578063181e210e146106565780631ce9cb8f1461067257806324b0c04d1461069857806324ca984e146106b957806328e67be5146106df57806329ff9615146107545780632c668ec11461077a5780632d4b0576146107a657806330455ede146107e4578063318bc6891461080357806334c1557d1461061a578063351a964d1461080b578063392e53cd146108135780633c5a6e351461081b5780633de39c11146108695780633e413bee146108715780633e72a2621461087957806340eb38021461088157806342152873146108d257806342b60b03146109065780634453a3741461092c575b600080fd5b6105c4600480360360208110156105b457600080fd5b50356001600160a01b031661176a565b60408051918252519081900360200190f35b6105c46117cd565b6105c46117de565b6105c4600480360360408110156105fc57600080fd5b506001600160a01b0381351690602001356117e4565b6105c4611837565b6105c461183d565b61062a611843565b604080516001600160a01b039092168252519081900360200190f35b6105c4611852565b6105c4611858565b61065e61185e565b604080519115158252519081900360200190f35b6105c46004803603602081101561068857600080fd5b50356001600160a01b031661186e565b6106b7600480360360208110156106ae57600080fd5b50351515611880565b005b6106b7600480360360208110156106cf57600080fd5b50356001600160a01b03166118a4565b6106b7600480360360408110156106f557600080fd5b81359190810190604081016020820135600160201b81111561071657600080fd5b82018360208201111561072857600080fd5b803590602001918460018302840111600160201b8311171561074957600080fd5b5090925090506118d5565b6105c46004803603602081101561076a57600080fd5b50356001600160a01b0316611953565b6105c46004803603604081101561079057600080fd5b506001600160a01b038135169060200135611967565b6105c4600480360360808110156107bc57600080fd5b506001600160a01b0381358116916020810135821691604082013516906060013515156119ac565b6106b7600480360360208110156107fa57600080fd5b50351515611a02565b6105c4611a24565b61065e611a2a565b61065e611a38565b6106b7600480360360e081101561083157600080fd5b506001600160a01b038135169060208101359060408101359060608101359060808101359060a081013515159060c001351515611a41565b6105c4611b83565b61062a611b89565b61065e611b98565b6106b7600480360361012081101561089857600080fd5b5080359060208101359060408101359060608101359060808101359060a08101359060c08101359060e08101359061010001351515611ba7565b6105c4600480360360608110156108e857600080fd5b508035906001600160a01b0360208201358116916040013516611c61565b61065e6004803603602081101561091c57600080fd5b50356001600160a01b0316611d03565b6106b76004803603604081101561094257600080fd5b506001600160a01b0381351690602001351515611d18565b6109986004803603608081101561097057600080fd5b506001600160a01b038135811691602081013582169160408201351690606001351515611d4b565b60408051921515835260208301919091528051918290030190f35b6106b7600480360360a08110156109c957600080fd5b506001600160a01b038135811691602081013582169160408201351690606081013590608001351515611de9565b61062a612216565b6105c460048036036020811015610a1557600080fd5b50356001600160a01b0316612225565b610a6360048036036080811015610a3b57600080fd5b506001600160a01b038135811691602081013582169160408201351690606001351515612237565b604080519889526020890197909752878701959095526060870193909352608086019190915260a0850152151560c084015260e083015251908190036101000190f35b6105c460048036036020811015610abc57600080fd5b50356001600160a01b031661232d565b6105c461233f565b6105c4612345565b610af960048036036020811015610af257600080fd5b503561234b565b604080519788526020880196909652868601949094526060860192909252608085015260a084015260c0830152519081900360e00190f35b6105c460048036036080811015610b4757600080fd5b506001600160a01b038135811691602081013582169160408201351690606001351515612388565b6105c460048036036020811015610b8557600080fd5b50356001600160a01b031661242e565b61065e60048036036020811015610bab57600080fd5b50356001600160a01b0316612440565b6105c460048036036020811015610bd157600080fd5b50356001600160a01b0316612455565b610998600480360360a0811015610bf757600080fd5b506001600160a01b0381351690602081013590604081013590606081013515159060800135612467565b6106b760048036036020811015610c3757600080fd5b50356001600160a01b031661255f565b61065e60048036036040811015610c5d57600080fd5b506001600160a01b0381358116916020013516612642565b6105c4612662565b6105c460048036036020811015610c9357600080fd5b50356001600160a01b0316612668565b6106b760048036036040811015610cb957600080fd5b506001600160a01b03813516906020013561267a565b61062a6126d5565b6106b760048036036020811015610ced57600080fd5b50356001600160a01b03166126eb565b6105c4612719565b6105c460048036036040811015610d1b57600080fd5b506001600160a01b0381358116916020013516612720565b6106b760048036036020811015610d4957600080fd5b50356001600160a01b03166129b4565b6106b760048036036020811015610d6f57600080fd5b50356001600160a01b03166129e8565b6106b7600480360360c0811015610d9557600080fd5b506001600160a01b03813581169160208101358216916040820135169060608101359060808101359060a00135612a12565b61062a612a89565b6105c4612a98565b6106b760048036036020811015610ded57600080fd5b50351515612a9e565b6105c460048036036020811015610e0c57600080fd5b50356001600160a01b0316612ac2565b6105c460048036036020811015610e3257600080fd5b50356001600160a01b0316612ad4565b6105c4600480360360e0811015610e5857600080fd5b506001600160a01b0381358116916020810135821691604082013581169160608101359160808201359160a081013515159160c09091013516612b7f565b6106b760048036036040811015610eac57600080fd5b506001600160a01b038135169060200135612bfd565b6105c460048036036020811015610ed857600080fd5b50356001600160a01b0316612c21565b6106b760048036036060811015610efe57600080fd5b5080359060208101359060400135612c33565b6105c460048036036020811015610f2757600080fd5b50356001600160a01b0316612c79565b6105c460048036036020811015610f4d57600080fd5b50356001600160a01b0316612c8b565b6106b760048036036020811015610f7357600080fd5b50356001600160a01b0316612c9d565b61065e612cc7565b6105c460048036036060811015610fa157600080fd5b506001600160a01b038135811691602081013582169160409091013516612cd6565b6105c4612fbe565b6105c460048036036020811015610fe157600080fd5b50356001600160a01b0316612fce565b6105c4612fe0565b6105c46004803603604081101561100f57600080fd5b506001600160a01b038135169060200135612fe6565b6105c46004803603606081101561103b57600080fd5b506001600160a01b038135169060208101359060400135613008565b61065e6130b1565b6105c46130ba565b6105c46004803603602081101561107d57600080fd5b50356001600160a01b03166130c0565b6105c4600480360360408110156110a357600080fd5b506001600160a01b038135169060200135613180565b6106b7600480360360408110156110cf57600080fd5b506001600160a01b038135169060200135151561319d565b6105c4600480360360208110156110fd57600080fd5b50356001600160a01b03166131d0565b61065e6132ce565b6105c46004803603602081101561112b57600080fd5b50356001600160a01b03166132d7565b6105c46132e9565b61065e6132ef565b6105c46004803603602081101561116157600080fd5b50356001600160a01b03166132fd565b6105c46004803603606081101561118757600080fd5b506001600160a01b03813581169160208101359091169060400135151561339e565b610998600480360360208110156111bf57600080fd5b50356001600160a01b0316613439565b6105c46134d1565b6105c4600480360360208110156111ed57600080fd5b50356001600160a01b03166134d6565b6105c46134e8565b6105c46004803603602081101561121b57600080fd5b50356001600160a01b03166134ee565b6105c4600480360360a081101561124157600080fd5b506001600160a01b0381351690602081013590604081013590606081013590608001351515613500565b6106b76004803603606081101561128157600080fd5b506001600160a01b038135811691602081013590911690604001356135aa565b6106b7600480360360208110156112b757600080fd5b50356001600160a01b03166135c6565b6106b7600480360360208110156112dd57600080fd5b50356135f0565b6106b7600480360360208110156112fa57600080fd5b50356135fd565b611347600480360360a081101561131757600080fd5b506001600160a01b0381358116916020810135821691604082013516906060810135151590608001351515613619565b6040805192835260208301919091528051918290030190f35b6105c46004803603604081101561137657600080fd5b506001600160a01b03813581169160200135166136d0565b6105c4600480360360208110156113a457600080fd5b50356001600160a01b031661399f565b6105c46139b1565b6105c4600480360360c08110156113d257600080fd5b506001600160a01b038135811691602081013582169160408201351690606081013515159060808101359060a001356139b7565b61065e6004803603602081101561141c57600080fd5b50356001600160a01b0316613a6b565b61065e6004803603602081101561144257600080fd5b50356001600160a01b0316613a80565b6105c4600480360360e081101561146857600080fd5b506001600160a01b0381351690602081013590604081013590606081013515159060808101359060a08101359060c00135613a94565b6105c4613b25565b6106b7600480360360a08110156114bc57600080fd5b506001600160a01b03813581169160208101358216916040820135811691606081013515159160809091013516613b2b565b6105c4613ef1565b6105c46004803603602081101561150c57600080fd5b50356001600160a01b0316613ef7565b61062a6004803603602081101561153257600080fd5b5035613f6f565b6106b76004803603602081101561154f57600080fd5b50356001600160a01b0316613f96565b6106b76004803603604081101561157557600080fd5b506001600160a01b038135169060200135614069565b6105c4600480360360208110156115a157600080fd5b50356001600160a01b031661408d565b6106b7600480360360208110156115c757600080fd5b5035151561409f565b6105c4600480360360408110156115e657600080fd5b506001600160a01b03813581169160200135166140c5565b61065e6004803603602081101561161457600080fd5b50356001600160a01b031661411b565b61062a614130565b6105c46004803603606081101561164257600080fd5b506001600160a01b03813516906020810135906040013561413f565b6106b76004803603604081101561167457600080fd5b506001600160a01b0381358116916020013516614179565b6105c4614352565b6105c4600480360360a08110156116aa57600080fd5b506001600160a01b038135811691602081013582169160408201351690606081013515159060800135614358565b6116f5600480360360208110156116ee57600080fd5b50356143ce565b6040805160208082528351818301528351919283929083019185019080838360005b8381101561172f578181015183820152602001611717565b50505050905090810190601f16801561175c5780820380516001836020036101000a031916815260200191505b509250505060405180910390f35b6001600160a01b038116600090815260256020526040812054806117925760009150506117c8565b6001600160a01b0383166000908152602660205260409020546117c49082906117be90620f4240614469565b906144c2565b9150505b919050565b6904ee2d6d415b85acef8160201b81565b601b5490565b6000816117f357506000611831565b60006117fe84612ad4565b6001600160a01b0385166000908152601d602052604090205490915061182c600a82900a6117be8685614469565b925050505b92915050565b600b5481565b61271081565b6006546001600160a01b031681565b60145481565b60095481565b6016546301000000900460ff1681565b602c6020526000908152604090205481565b611888614501565b60168054911515620100000262ff000019909216919091179055565b3360009081526018602090815260408083206001600160a01b0394909416835292905220805460ff19166001179055565b6002546001600160a01b03163314611934576040805162461bcd60e51b815260206004820152601e60248201527f5661756c743a20696e76616c6964206572726f72436f6e74726f6c6c65720000604482015290519081900360640190fd5b600083815260306020526040902061194d908383615d18565b50505050565b600061183182611962846132fd565b6117e4565b60008061197384613ef7565b90506000611991826117be8668327cb2734119d3b7a9601e1b614469565b60055490915061182c9082906001600160a01b031687611c61565b604080516001600160601b0319606096871b811660208084019190915295871b811660348301529390951b9092166048850152151560f81b605c8401528051603d818503018152605d9093019052815191012090565b611a0a614501565b600180549115156101000261ff0019909216919091179055565b600f5481565b600154610100900460ff1681565b60015460ff1681565b611a49614501565b6001600160a01b0387166000908152601c602052604090205460ff16611ac657600754611a7790600161451c565b600755601b80546001810182556000919091527f3ad8aa4f87544323a9d1e5dd902f40c356527a7955687113db5f9a85ad579dc10180546001600160a01b0319166001600160a01b0389161790555b6015546001600160a01b038816600090815260226020526040902054611aed908290614574565b6001600160a01b0389166000908152601c602090815260408083208054600160ff1991821617909155601d83528184208c9055602283528184208b9055601e83528184208a905560248352818420899055601f83528184208054821689151517905591805290912080549091168415151790559050611b6c818761451c565b601555611b7888613ef7565b505050505050505050565b60175481565b6005546001600160a01b031681565b60015462010000900460ff1681565b611baf614501565b611bbf6101f48a111560036145b6565b611bcf6101f489111560046145b6565b611bdf6101f488111560056145b6565b611bef6101f487111560066145b6565b611bff6101f486111560076145b6565b611c0f6101f485111560086145b6565b611c2a6904ee2d6d415b85acef8160201b84111560096145b6565b600a98909855600b96909655600c94909455600d92909255600e55600f556009556010556011805460ff1916911515919091179055565b60055460009081906001600160a01b03858116911614611c99576001600160a01b0384166000908152601d6020526040902054611c9c565b60125b6005549091506000906001600160a01b03858116911614611cd5576001600160a01b0384166000908152601d6020526040902054611cd8565b60125b9050611cf782600a0a6117be83600a0a8961446990919063ffffffff16565b925050505b9392505050565b601f6020526000908152604090205460ff1681565b611d20614501565b6001600160a01b03919091166000908152601960205260409020805460ff1916911515919091179055565b6000806000611d5c878787876119ac565b9050611d66615d96565b506000818152602b6020908152604091829020825160e081018452815480825260018301549382019390935260028201549381018490526003820154606082015260048201546080820152600582015460a082015260069091015460c082018190529092611dda9289929091908990612467565b93509350505094509492505050565b60026000541415611e2f576040805162461bcd60e51b815260206004820152601f6024820152600080516020615de9833981519152604482015290519081900360640190fd5b6002600055600154611e4b9062010000900460ff16601c6145b6565b611e53614662565b611e5c8561467e565b611e678484836146e1565b60015460408051634eae147d60e11b81526001600160a01b038881166004830152878116602483015286811660448301526064820186905284151560848301529151630100000090930490911691639d5c28fa9160a480820192600092909190829003018186803b158015611edb57600080fd5b505afa158015611eef573d6000803e3d6000fd5b50505050611efd8484614179565b6000611f0b868686856119ac565b6000818152602b6020526040812091925083611f2f57611f2a86612ad4565b611f38565b611f3886613ef7565b8254909150611f4957600282018190555b815415801590611f595750600085115b15611f7f57611f79868360000154846002015487858a8860060154613a94565b60028301555b6000611f98898989888a886000015489600301546147f6565b90506000611fa5896148b2565b90506000611fb38a836117e4565b6001860154909150611fc5908261451c565b60018601819055611fda90841115601d6145b6565b6001850154611fe99084614574565b6001860155611ff98a8a8961339e565b6003860155845461200a908961451c565b808655426006870155612020901515601e6145b6565b6120328560000154866001015461495f565b6120408b8b8b8a6001613619565b5050600061204e8b8a613180565b6004870154909150612060908261451c565b600487015561206f8b82614983565b87156120b4576120888b6120838b8761451c565b614a23565b6120928b83614aa2565b61209c8b84614b21565b6120af8b6120aa8d87612fe6565b614c39565b612120565b6001600160a01b038a166000908152602d60205260409020546120f1576001600160a01b038a166000908152602e60205260409020859055612116565b6120fc8a868b613008565b6001600160a01b038b166000908152602e60205260409020555b6121208a8a614d0c565b604080518881526001600160a01b03808f166020830152808e16828401528c1660608201526080810184905260a081018b905289151560c082015260e08101879052610100810186905290517f2fe68525253654c21998f35787a8d0f361905ef647c854092430ab65f2f15022918190036101200190a1855460018701546002880154600389015460048a015460058b0154604080518e81526020810197909752868101959095526060860193909352608085019190915260a084015260c083015260e0820187905251600080516020615e09833981519152918190036101000190a15050600160005550505050505050505050565b6002546001600160a01b031681565b60246020526000908152604090205481565b60008060008060008060008060006122518d8d8d8d6119ac565b905061225b615d96565b602b60008381526020019081526020016000206040518060e001604052908160008201548152602001600182015481526020016002820154815260200160038201548152602001600482015481526020016005820154815260200160068201548152505090506000808260a00151136122db578160a001516000036122e1565b8160a001515b9050816000015182602001518360400151846060015185608001518560008860a0015112158860c001519a509a509a509a509a509a509a509a5050505094995094995094999196509450565b60276020526000908152604090205481565b6101f481565b600c5481565b602b602052600090815260409020805460018201546002830154600384015460048501546005860154600690960154949593949293919290919087565b600080612397868686866119ac565b90506123a1615d96565b506000818152602b6020908152604091829020825160e0810184528154815260018201549281018390526002820154938101939093526003810154606084015260048101546080840152600581015460a08401526006015460c083015261240b90151560256145b6565b6020810151815161242391906117be90612710614469565b979650505050505050565b60216020526000908152604090205481565b60196020526000908152604090205460ff1681565b60256020526000908152604090205481565b6000806124786000861160266145b6565b60008461248d5761248888613ef7565b612496565b61249688612ad4565b905060008187116124b0576124ab8288614574565b6124ba565b6124ba8783614574565b905060006124cc886117be8b85614469565b9050600087156124df57508783116124e4565b508288115b60006124fb6010548961451c90919063ffffffff16565b421161251f576001600160a01b038c166000908152601e6020526040902054612522565b60005b905081801561254557506125368b82614469565b61254284612710614469565b11155b1561254f57600092505b509a909950975050505050505050565b600260005414156125a5576040805162461bcd60e51b815260206004820152601f6024820152600080516020615de9833981519152604482015290519081900360640190fd5b600260009081556001600160a01b0382168152601c60205260409020546125d09060ff16600e6145b6565b60006125db826148b2565b90506125eb60008211600f6145b6565b6125f58282614b21565b604080516001600160a01b03841681526020810183905281517fa5a389190ebf6170a133bda5c769b77f4d6715b8aa172ec0ddf8473d0b4944bd929181900390910190a150506001600055565b601860209081526000928352604080842090915290825290205460ff1681565b60075481565b602e6020526000908152604090205481565b612682614501565b6001600160a01b038216600090815260236020526040902054808211156126bc576126b6836126b18484614574565b614dc4565b506126d1565b6126cf836126ca8385614574565b614e82565b505b5050565b600154630100000090046001600160a01b031681565b3360009081526018602090815260408083206001600160a01b0394909416835292905220805460ff19169055565b620f424081565b600060026000541415612768576040805162461bcd60e51b815260206004820152601f6024820152600080516020615de9833981519152604482015290519081900360640190fd5b6002600055612775614f40565b6001600160a01b0383166000908152601c602052604090205461279c9060ff1660136145b6565b6016805461ff0019166101001790556005546000906127c3906001600160a01b03166148b2565b90506127d36000821160146145b6565b6127dd8485614179565b60006127e98583611967565b90506127f96000821160156145b6565b6128038583614e82565b61280d8582614c39565b60055460408051632770a7eb60e21b81523060048201526024810185905290516001600160a01b0390921691639dc29fac9160448082019260009290919082900301818387803b15801561286057600080fd5b505af1158015612874573d6000803e3d6000fd5b505060055461288e92506001600160a01b03169050614f6f565b600154604080516348694aed60e01b81526001600160a01b03888116600483015260248201869052915160009363010000009004909216916348694aed91604480820192602092909190829003018186803b1580156128ec57600080fd5b505afa158015612900573d6000803e3d6000fd5b505050506040513d602081101561291657600080fd5b50519050600061292787848461500a565b90506129376000821160166145b6565b6129428782886150d2565b604080516001600160a01b03808916825289166020820152808201869052606081018390526080810184905290517f0f38682740227987779afde8fd37226a55d982d3fb19e938c2860848d21b4f409181900360a00190a16016805461ff001916905560016000559695505050505050565b6129bc614501565b600180546001600160a01b039092166301000000026301000000600160b81b0319909216919091179055565b6129f0614501565b600480546001600160a01b0319166001600160a01b0392909216919091179055565b612a1a614501565b60018054612a2e9160ff90911615906145b6565b6001805460ff191681179055600380546001600160a01b03199081166001600160a01b039889161790915560058054821696881696909617909555600480549095169390951692909217909255600991909155601355601455565b6004546001600160a01b031681565b600a5481565b612aa6614501565b60018054911515620100000262ff000019909216919091179055565b60236020526000908152604090205481565b60048054601654604080516317e1d38560e11b81526001600160a01b038681169582019590955260006024820181905260ff80851615156044840152610100909404909316151560648201529051919390921691632fc3a70a916084808301926020929190829003018186803b158015612b4d57600080fd5b505afa158015612b61573d6000803e3d6000fd5b505050506040513d6020811015612b7757600080fd5b505192915050565b600060026000541415612bc7576040805162461bcd60e51b815260206004820152601f6024820152600080516020615de9833981519152604482015290519081900360640190fd5b6002600055612bd4614662565b612bdd8861467e565b612bec88888888888888615179565b600160005598975050505050505050565b612c05614501565b6001600160a01b03909116600090815260276020526040902055565b601e6020526000908152604090205481565b612c3b614501565b612c4b610e10841015600a6145b6565b612c5b612710831115600b6145b6565b612c6b612710821115600c6145b6565b601292909255601355601455565b602d6020526000908152604090205481565b601d6020526000908152604090205481565b612ca5614501565b600280546001600160a01b0319166001600160a01b0392909216919091179055565b60165462010000900460ff1681565b600060026000541415612d1e576040805162461bcd60e51b815260206004820152601f6024820152600080516020615de9833981519152604482015290519081900360640190fd5b6002600055600154612d3990610100900460ff1660176145b6565b6001600160a01b0384166000908152601c6020526040902054612d609060ff1660186145b6565b6001600160a01b0383166000908152601c6020526040902054612d879060ff1660196145b6565b612da7836001600160a01b0316856001600160a01b03161415601a6145b6565b6016805461ff001916610100179055612dc08480614179565b612dca8384614179565b6000612dd5856148b2565b9050612de560008211601b6145b6565b6000612df086612ad4565b90506000612dfd86613ef7565b90506000612e0f826117be8686614469565b9050612e1c818989611c61565b90506000612e3a68327cb2734119d3b7a9601e1b6117be8787614469565b600554909150612e569082908b906001600160a01b0316611c61565b60015460408051636d099c0b60e11b81526001600160a01b038d811660048301528c8116602483015260448201859052915193945060009363010000009093049091169163da13381691606480820192602092909190829003018186803b158015612ec057600080fd5b505afa158015612ed4573d6000803e3d6000fd5b505050506040513d6020811015612eea57600080fd5b505190506000612efb8a858461500a565b9050612f078b84614dc4565b612f118a84614e82565b612f1b8b88614b21565b612f258a85614c39565b612f2e8a615606565b612f398a828b6150d2565b604080516001600160a01b03808c168252808e1660208301528c1681830152606081018990526080810186905260a0810183905260c0810184905290517f0874b2d545cb271cdbda4e093020c452328b24af12382ed62c4d00f5c26709db9181900360e00190a16016805461ff001916905560016000559a9950505050505050505050565b68327cb2734119d3b7a9601e1b81565b602f6020526000908152604090205481565b60125481565b600081612ff557506000611831565b611cfc838361300386613ef7565b61413f565b6001600160a01b0383166000908152602d6020908152604080832054602e909252822054828582116130435761303e8683614574565b61304d565b61304d8287614574565b9050600061305f836117be8685614469565b90508683116000613070868961451c565b905060008261308857613083828561451c565b613092565b6130928285614574565b90506130a2816117be8c85614469565b9b9a5050505050505050505050565b60115460ff1681565b600d5481565b600080600560009054906101000a90046001600160a01b03166001600160a01b03166318160ddd6040518163ffffffff1660e01b815260040160206040518083038186803b15801561311157600080fd5b505afa158015613125573d6000803e3d6000fd5b505050506040513d602081101561313b57600080fd5b505190508061314e5760009150506117c8565b6001600160a01b038316600090815260226020526040902054601554613178906117be8385614469565b949350505050565b60008161318f57506000611831565b611cfc838361300386612ad4565b6131a5614501565b6001600160a01b03919091166000908152601a60205260409020805460ff1916911515919091179055565b6012546001600160a01b0382166000908152602a6020526040812054909142916131f99161451c565b1115613207575060006117c8565b6012546001600160a01b0383166000908152602a60205260408120549091613234916117be904290614574565b6001600160a01b03841660009081526025602052604090205490915080613260576000925050506117c8565b6001600160a01b0384166000908152601f602052604081205460ff166132885760135461328c565b6014545b6001600160a01b0386166000908152602660205260409020549091506132c59083906117be9086906132bf908690614469565b90614469565b95945050505050565b60165460ff1681565b60226020526000908152604090205481565b60085481565b601654610100900460ff1681565b6001600160a01b0381166000908152601f602052604081205460ff161561333d57506001600160a01b0381166000908152602560205260409020546117c8565b6001600160a01b038216600090815260286020526040812054613361908490612fe6565b6001600160a01b0384166000908152602660209081526040808320546025909252909120549192506117c49161339890849061451c565b90614574565b6001546040805163b1cc53ab60e01b81526001600160a01b038681166004830152858116602483015284151560448301529151600093630100000090049092169163b1cc53ab91606480820192602092909190829003018186803b15801561340557600080fd5b505afa158015613419573d6000803e3d6000fd5b505050506040513d602081101561342f57600080fd5b5051949350505050565b6001600160a01b0381166000908152602d60205260408120548190806134665760008092509250506134cc565b600061347185613ef7565b6001600160a01b0386166000908152602e60205260408120549192508282116134a35761349e8383614574565b6134ad565b6134ad8284614574565b905060006134bf836117be8785614469565b9390921195509193505050505b915091565b601281565b60266020526000908152604090205481565b60135481565b60296020526000908152604090205481565b6001546040805163c7e074c360e01b81526001600160a01b03888116600483015260248201889052604482018790526064820186905284151560848301529151600093630100000090049092169163c7e074c39160a480820192602092909190829003018186803b15801561357457600080fd5b505afa158015613588573d6000803e3d6000fd5b505050506040513d602081101561359e57600080fd5b50519695505050505050565b6135b2614501565b6126cf6001600160a01b038316848361567b565b6135ce614501565b600680546001600160a01b0319166001600160a01b0392909216919091179055565b6135f8614501565b601755565b613605614501565b613614612710821160026145b6565b600855565b6001546040805163d54d5a9f60e01b81526001600160a01b03888116600483015287811660248301528681166044830152851515606483015284151560848301528251600094859463010000009091049092169263d54d5a9f9260a4808301939192829003018186803b15801561368f57600080fd5b505afa1580156136a3573d6000803e3d6000fd5b505050506040513d60408110156136b957600080fd5b508051602090910151909890975095505050505050565b600060026000541415613718576040805162461bcd60e51b815260206004820152601f6024820152600080516020615de9833981519152604482015290519081900360640190fd5b6002600055613725614f40565b6001600160a01b0383166000908152601c602052604090205461374c9060ff1660106145b6565b6016805461ff0019166101001790556000613766846148b2565b90506137766000821160116145b6565b6137808485614179565b600061378b85612ad4565b905060006137a968327cb2734119d3b7a9601e1b6117be8585614469565b6005549091506137c590829088906001600160a01b0316611c61565b90506137d56000821160126145b6565b6001546040805162c632b160e41b81526001600160a01b0389811660048301526024820185905291516000936301000000900490921691630c632b1091604480820192602092909190829003018186803b15801561383257600080fd5b505afa158015613846573d6000803e3d6000fd5b505050506040513d602081101561385c57600080fd5b50519050600061386d88868461500a565b9050600061388b68327cb2734119d3b7a9601e1b6117be8488614469565b6005549091506138a79082908b906001600160a01b0316611c61565b90506138b38982614dc4565b6138bd8983614b21565b600554604080516340c10f1960e01b81526001600160a01b038b8116600483015260248201859052915191909216916340c10f1991604480830192600092919082900301818387803b15801561391257600080fd5b505af1158015613926573d6000803e3d6000fd5b5050604080516001600160a01b03808d1682528d1660208201528082018a9052606081018590526080810187905290517f716f4939344daca9e0d17ca08e3a8fbe10258a7cac04c1d57b5d759382686efb93509081900360a0019150a16016805461ff0019169055600160005598975050505050505050565b602a6020526000908152604090205481565b60105481565b6001546040805163369d949360e21b81526001600160a01b0389811660048301528881166024830152878116604483015286151560648301526084820186905260a482018590529151600093630100000090049092169163da76524c9160c480820192602092909190829003018186803b158015613a3457600080fd5b505afa158015613a48573d6000803e3d6000fd5b505050506040513d6020811015613a5e57600080fd5b5051979650505050505050565b601c6020526000908152604090205460ff1681565b602080526000908152604090205460ff1681565b6000806000613aa68a8a8a8a88612467565b90925090506000613ab78a8761451c565b905060008815613ae65783613ad557613ad08284614574565b613adf565b613adf828461451c565b9050613b07565b83613afa57613af5828461451c565b613b04565b613b048284614574565b90505b613b15816117be8a85614469565b9c9b505050505050505050505050565b60155481565b60026000541415613b71576040805162461bcd60e51b815260206004820152601f6024820152600080516020615de9833981519152604482015290519081900360640190fd5b60026000556016546301000000900460ff1615613ba65733600090815260196020526040902054613ba69060ff1660226145b6565b6016805460ff19169055613bba8484614179565b6000613bc8868686866119ac565b9050613bd2615d96565b506000818152602b6020908152604091829020825160e08101845281548082526001830154938201939093526002820154938101939093526003810154606084015260048101546080840152600581015460a08401526006015460c0830152613c3e90151560236145b6565b600080613c4f898989896000613619565b91509150613c62826000141560246145b6565b8160021415613c9757613c7f898989600087600001518b8f615179565b50506016805460ff1916600117905550613ee5915050565b6000613ca38983612fe6565b6001600160a01b038a166000908152602c6020526040902054909150613cc9908261451c565b6001600160a01b038a166000818152602c60209081526040918290209390935580519182529181018490528082018390529051600080516020615eb48339815191529181900360600190a1613d228985608001516156cd565b8615613d515760208401518451613d43918b91613d3e91614574565b614aa2565b613d51896120aa8b85612fe6565b600087613d6657613d6189613ef7565b613d6f565b613d6f89612ad4565b90507f2e1f85a64a2f22cf2f0c42584e7c919ed4abe8d53675cff0f62bf1e95a1c676f868c8c8c8c8a600001518b602001518c608001518d60a001518a604051808b81526020018a6001600160a01b03168152602001896001600160a01b03168152602001886001600160a01b0316815260200187151581526020018681526020018581526020018481526020018381526020018281526020019a505050505050505050505060405180910390a187158015613e2e5750846020015183105b15613e5c576020850151600090613e459085614574565b9050613e5a8b613e558d84612fe6565b614b21565b505b87613e6f57613e6f898660000151615782565b6000868152602b60205260408120818155600181018290556002810182905560038101829055600481018290556005810182905560060155600954613ebb908b906120aa908290612fe6565b613ed18a613ecb8c600954612fe6565b896150d2565b50506016805460ff19166001179055505050505b50506001600055505050565b600e5481565b60048054601654604080516317e1d38560e11b81526001600160a01b03868116958201959095526001602482015260ff80841615156044830152610100909304909216151560648301525160009390921691632fc3a70a91608480820192602092909190829003018186803b158015612b4d57600080fd5b601b8181548110613f7c57fe5b6000918252602090912001546001600160a01b0316905081565b613f9e614501565b6001600160a01b0381166000908152601c6020526040902054613fc59060ff16600d6145b6565b6001600160a01b038116600090815260226020526040902054601554613fea91614574565b6015556001600160a01b0381166000908152601c60209081526040808320805460ff19908116909155601d835281842084905560228352818420849055601e835281842084905560248352818420849055601f835281842080548216905591805290912080549091169055600754614063906001614574565b60075550565b614071614501565b6001600160a01b039091166000908152602f6020526040902055565b60286020526000908152604090205481565b6140a7614501565b6016805491151563010000000263ff00000019909216919091179055565b60006140cf614501565b6001600160a01b0383166000908152602c6020526040902054806140f7576000915050611831565b6001600160a01b0384166000908152602c6020526040812055611cfc8482856150d2565b601a6020526000908152604090205460ff1681565b6003546001600160a01b031681565b60008261414e57506000611cfc565b6001600160a01b0384166000908152601d60205260409020546132c5836117be86600a85900a614469565b6001546040805163fbfded6d60e01b81526001600160a01b03858116600483015284811660248301529151600093630100000090049092169163fbfded6d9160448082019260209290919082900301818787803b1580156141d957600080fd5b505af11580156141ed573d6000803e3d6000fd5b505050506040513d602081101561420357600080fd5b505190508061421257506126d1565b6001600160a01b0383166000908152602a602052604090205461425f57601254614240906132bf42826144c2565b6001600160a01b0384166000908152602a6020526040902055506126d1565b6012546001600160a01b0384166000908152602a60205260409020544291614287919061451c565b111561429357506126d1565b600061429e846131d0565b6001600160a01b0385166000908152602960205260409020549091506142c4908261451c565b6001600160a01b0385166000908152602960205260409020556012546142ee906132bf42826144c2565b6001600160a01b0385166000818152602a602090815260408083209490945560298152908390205483519283529082015281517fa146fc154e1913322e9817d49f0d5c37466c24326e15de10e739a948be815eab929181900390910190a150505050565b610e1081565b6001546040805163fdaf6ac360e01b81526001600160a01b038881166004830152878116602483015286811660448301528515156064830152608482018590529151600093630100000090049092169163fdaf6ac39160a480820192602092909190829003018186803b15801561357457600080fd5b60306020908152600091825260409182902080548351601f6002600019610100600186161502019093169290920491820184900484028101840190945280845290918301828280156144615780601f1061443657610100808354040283529160200191614461565b820191906000526020600020905b81548152906001019060200180831161444457829003601f168201915b505050505081565b60008261447857506000611831565b8282028284828161448557fe5b0414611cfc5760405162461bcd60e51b8152600401808060200182810382526021815260200180615e496021913960400191505060405180910390fd5b6000611cfc83836040518060400160405280601a815260200179536166654d6174683a206469766973696f6e206279207a65726f60301b8152506157ea565b60065461451a906001600160a01b0316331460356145b6565b565b600082820183811015611cfc576040805162461bcd60e51b815260206004820152601b60248201527a536166654d6174683a206164646974696f6e206f766572666c6f7760281b604482015290519081900360640190fd5b6000611cfc83836040518060400160405280601e81526020017f536166654d6174683a207375627472616374696f6e206f766572666c6f77000081525061588c565b6000818152603060205260409020826126cf5760405162461bcd60e51b81526020600482019081528254600260001961010060018416150201909116046024830181905290918291604490910190849080156146535780601f1061462857610100808354040283529160200191614653565b820191906000526020600020905b81548152906001019060200180831161463657829003601f168201915b50509250505060405180910390fd5b60175461466e5761451a565b61451a6017543a111560376145b6565b336001600160a01b0382161415614694576146de565b6003546001600160a01b03163314156146ac576146de565b6001600160a01b03811660009081526018602090815260408083203384529091529020546146de9060ff1660296145b6565b50565b801561475a57614706826001600160a01b0316846001600160a01b031614602a6145b6565b6001600160a01b0383166000908152601c602052604090205461472d9060ff16602b6145b6565b6001600160a01b0383166000908152601f60205260409020546147559060ff1615602c6145b6565b6126cf565b6001600160a01b0383166000908152601c60205260409020546147819060ff16602d6145b6565b6001600160a01b0383166000908152601f60205260409020546147a89060ff16602e6145b6565b6001600160a01b0382166000908152601f60205260409020546147d09060ff1615602f6145b6565b6001600160a01b03821660009081526020805260409020546126cf9060ff1660306145b6565b6000806148068989898989614358565b905060006148188a8a8a8a89896139b7565b9050614824828261451c565b915060006148328a84612fe6565b6001600160a01b038b166000908152602c6020526040902054909150614858908261451c565b6001600160a01b038b166000818152602c60209081526040918290209390935580519182529181018590528082018390529051600080516020615eb48339815191529181900360600190a150909998505050505050505050565b6001600160a01b03811660008181526021602090815260408083205481516370a0823160e01b8152306004820152915193949093859391926370a08231926024808301939192829003018186803b15801561490c57600080fd5b505afa158015614920573d6000803e3d6000fd5b505050506040513d602081101561493657600080fd5b50516001600160a01b038516600090815260216020526040902081905590506131788183614574565b8161497557614970811560276145b6565b6126d1565b6126d18183101560286145b6565b6001600160a01b0382166000908152602660205260409020546149a6908261451c565b6001600160a01b0383166000908152602660208181526040808420859055602582529092205491526149db91111560346145b6565b604080516001600160a01b03841681526020810183905281517faa5649d82f5462be9d19b0f2b31a59b2259950a6076550bac9f3a1c07db9f66d929181900390910190a15050565b6001600160a01b038216600090815260286020526040902054614a46908261451c565b6001600160a01b03831660008181526028602090815260409182902093909355805191825291810183905281517fd9d4761f75e0d0103b5cbeab941eeb443d7a56a35b5baf2a0787c03f03f4e474929181900390910190a15050565b6001600160a01b038216600090815260286020526040902054614ac59082614574565b6001600160a01b03831660008181526028602090815260409182902093909355805191825291810183905281517f34e07158b9db50df5613e591c44ea2ebc82834eff4a4dc3a46e000e608261d68929181900390910190a15050565b6001600160a01b038216600090815260256020526040902054614b44908261451c565b6001600160a01b03831660008181526025602090815260408083209490945583516370a0823160e01b8152306004820152935191936370a082319260248083019392829003018186803b158015614b9a57600080fd5b505afa158015614bae573d6000803e3d6000fd5b505050506040513d6020811015614bc457600080fd5b50516001600160a01b038416600090815260256020526040902054909150614bf09082101560316145b6565b604080516001600160a01b03851681526020810184905281517f976177fbe09a15e5e43f848844963a42b41ef919ef17ff21a17a5421de8f4737929181900390910190a1505050565b604080518082018252601a81527915985d5b1d0e881c1bdbdb105b5bdd5b9d08195e18d95959195960321b6020808301919091526001600160a01b038516600090815260259091529190912054614c9191839061588c565b6001600160a01b03831660009081526025602090815260408083208490556026909152902054614cc491101560326145b6565b604080516001600160a01b03841681526020810183905281517f112726233fbeaeed0f5b1dba5cb0b2b81883dee49fb35ff99fd98ed9f6d31eb0929181900390910190a15050565b6001600160a01b0382166000908152602d6020526040902054614d2f908261451c565b6001600160a01b0383166000908152602d6020908152604080832093909355602f9052205480156126cf576001600160a01b0383166000908152602d60205260409020548110156126cf576040805162461bcd60e51b815260206004820152601a60248201527915985d5b1d0e881b585e081cda1bdc9d1cc8195e18d95959195960321b604482015290519081900360640190fd5b6001600160a01b038216600090815260236020526040902054614de7908261451c565b6001600160a01b0383166000908152602360209081526040808320939093556024905220548015614e39576001600160a01b038316600090815260236020526040902054614e399082101560336145b6565b604080516001600160a01b03851681526020810184905281517f069bd39366da3b713f0f974c57808bba53a09945dfc2844e602473f204234be6929181900390910190a1505050565b6001600160a01b038216600090815260236020526040902054818111614eeb576001600160a01b038316600081815260236020908152604080832092909255815192835282018390528051600080516020615e6a8339815191529281900390910190a1506126d1565b614ef58183614574565b6001600160a01b0384166000818152602360209081526040918290209390935580519182529181018490528151600080516020615e6a833981519152929181900390910190a1505050565b60165462010000900460ff161561451a57336000908152601a602052604090205461451a9060ff1660366145b6565b6000816001600160a01b03166370a08231306040518263ffffffff1660e01b815260040180826001600160a01b0316815260200191505060206040518083038186803b158015614fbe57600080fd5b505afa158015614fd2573d6000803e3d6000fd5b505050506040513d6020811015614fe857600080fd5b50516001600160a01b0390921660009081526021602052604090209190915550565b6000806150276127106117be6150208287614574565b8790614469565b905060006150358583614574565b6001600160a01b0387166000908152602c602052604090205490915061505b908261451c565b6001600160a01b0387166000908152602c60205260409020557f47cd9dda0e50ce30bcaaacd0488452b596221c07ac402a581cfae4d3933cac2b866150a081846117e4565b604080516001600160a01b0390931683526020830191909152818101849052519081900360600190a150949350505050565b6150e66001600160a01b038416828461567b565b604080516370a0823160e01b815230600482015290516001600160a01b038516916370a08231916024808301926020929190829003018186803b15801561512c57600080fd5b505afa158015615140573d6000803e3d6000fd5b505050506040513d602081101561515657600080fd5b50516001600160a01b039093166000908152602160205260409020929092555050565b600154604080516381d11a2360e01b81526001600160a01b038a8116600483015289811660248301528881166044830152606482018890526084820187905285151560a483015284811660c4830152915160009363010000009004909216916381d11a239160e4808201928692909190829003018186803b1580156151fd57600080fd5b505afa158015615211573d6000803e3d6000fd5b5050505061521f8787614179565b600061522d898989876119ac565b6000818152602b6020526040902080549192509061524e901515601f6145b6565b615260868260000154101560206145b6565b615272878260010154101560216145b6565b60018101548154600483015460009161528f916117be908b614469565b60048401549091506152a19082614574565b60048401556152b08b826156cd565b506000806152c28d8d8d8d8d8d6158e6565b855491935091508914615442576152da8c8c8a61339e565b600385015583546152eb908a614574565b80855560018501546152fd919061495f565b61530b8d8d8d8b6001613619565b505087156153385761532e8c61208386600101548661457490919063ffffffff16565b6153388c8a614aa2565b60008861534d576153488c613ef7565b615356565b6153568c612ad4565b9050600080516020615e29833981519152868f8f8f8f8f8f886153798c8c614574565b60408051998a526001600160a01b0398891660208b015296881689880152949096166060880152608087019290925260a0860152151560c085015260e084019290925261010083019190915251908190036101200190a18454600186015460028701546003880154600489015460058a0154604080518d81526020810197909752868101959095526060860193909352608085019190915260a084015260c083015260e0820183905251600080516020615e09833981519152918190036101000190a1506155a4565b871561545c576154528c84614a23565b61545c8c8a614aa2565b6000886154715761546c8c613ef7565b61547a565b61547a8c612ad4565b9050600080516020615e29833981519152868f8f8f8f8f8f8861549d8c8c614574565b60408051998a526001600160a01b0398891660208b015296881689880152949096166060880152608087019290925260a0860152151560c085015260e084019290925261010083019190915251908190036101200190a18454600186015460028701546003880154600489015460058a0154604080518d81526020810197909752868101959095526060860193909352608085019190915260a084015260c0830152517f73af1d417d82c240fdb6d319b34ad884487c6bf2845d98980cc52ad9171cb4559181900360e00190a1506000858152602b602052604081208181556001810182905560028101829055600381018290556004810182905560058101829055600601555b876155b3576155b38b8a615782565b81156155f35787156155cd576155cd8c6120aa8e85612fe6565b60006155d98d83612fe6565b90506155e68d828a6150d2565b9550612423945050505050565b5060009c9b505050505050505050505050565b6001600160a01b03811660009081526027602090815260408083205460259092529091205410156146de576040805162461bcd60e51b815260206004820152601a6024820152792b30bab63a1d103837b7b620b6b7bab73a101e10313ab33332b960311b604482015290519081900360640190fd5b604080516001600160a01b038416602482015260448082018490528251808303909101815260649091019091526020810180516001600160e01b031663a9059cbb60e01b1790526126cf908490615ae0565b604080518082018252601b81527a5661756c743a20696e73756666696369656e74207265736572766560281b6020808301919091526001600160a01b03851660009081526026909152919091205461572691839061588c565b6001600160a01b03831660008181526026602090815260409182902093909355805191825291810183905281517f533cb5ed32be6a90284e96b5747a1bfc2d38fdb5768a6b5f67ff7d62144ed67b929181900390910190a15050565b6001600160a01b0382166000908152602d6020526040902054808211156157c257506001600160a01b0382166000908152602d60205260408120556126d1565b6157cc8183614574565b6001600160a01b0384166000908152602d6020526040902055505050565b600081836158765760405162461bcd60e51b81526004018080602001828103825283818151815260200191508051906020019080838360005b8381101561583b578181015183820152602001615823565b50505050905090810190601f1680156158685780820380516001836020036101000a031916815260200191505b509250505060405180910390fd5b50600083858161588257fe5b0495945050505050565b600081848411156158de5760405162461bcd60e51b815260206004820181815283516024840152835190928392604490910191908501908083836000831561583b578181015183820152602001615823565b505050900390565b60008060006158f7898989876119ac565b6000818152602b60205260408120805460038201549394509092615924918d918d918d918b918d916147f6565b90506000806000806159458d876000015488600201548d8a60060154612467565b8754919550859350915061595d906117be8d84614469565b9250505060008280156159705750600082115b156159a057506005840180548201905580886159a05760006159928e84612fe6565b905061599e8e82614c39565b505b821580156159ae5750600082115b156159f25760018501546159c29083614574565b6001860155886159e65760006159d88e84612fe6565b90506159e48e82614b21565b505b60058501805483900390555b8a15615a1a57615a02818c61451c565b6001860154909150615a14908c614574565b60018601555b84548a1415615a3d576001850154615a3390829061451c565b6000600187015590505b8084811115615a5757615a508286614574565b9050615a8b565b6001860154615a669086614574565b60018701558915615a8b576000615a7d8f87612fe6565b9050615a898f82614c39565b505b60408051888152851515602082015280820185905290517f3ff41bdde87755b687ae83d0221a232b6be51a803330ed9661c1b5d0105e0d8a9181900360600190a1909e909d509b505050505050505050505050565b6060615b35826040518060400160405280602081526020017f5361666545524332303a206c6f772d6c6576656c2063616c6c206661696c6564815250856001600160a01b0316615b919092919063ffffffff16565b8051909150156126cf57808060200190516020811015615b5457600080fd5b50516126cf5760405162461bcd60e51b815260040180806020018281038252602a815260200180615e8a602a913960400191505060405180910390fd5b6060613178848460008585615ba585615cac565b615bf6576040805162461bcd60e51b815260206004820152601d60248201527f416464726573733a2063616c6c20746f206e6f6e2d636f6e7472616374000000604482015290519081900360640190fd5b60006060866001600160a01b031685876040518082805190602001908083835b60208310615c355780518252601f199092019160209182019101615c16565b6001836020036101000a03801982511681845116808217855250505050505090500191505060006040518083038185875af1925050503d8060008114615c97576040519150601f19603f3d011682016040523d82523d6000602084013e615c9c565b606091505b5091509150612423828286615cb2565b3b151590565b60608315615cc1575081611cfc565b825115615cd15782518084602001fd5b60405162461bcd60e51b815260206004820181815284516024840152845185939192839260440191908501908083836000831561583b578181015183820152602001615823565b828054600181600116156101000203166002900490600052602060002090601f016020900481019282601f10615d595782800160ff19823516178555615d86565b82800160010185558215615d86579182015b82811115615d86578235825591602001919060010190615d6b565b50615d92929150615dd3565b5090565b6040518060e00160405280600081526020016000815260200160008152602001600081526020016000815260200160008152602001600081525090565b5b80821115615d925760008155600101615dd456fe5265656e7472616e637947756172643a207265656e7472616e742063616c6c0020853733b590dce729d9f4628682ebd9a34d2354e72679e66f43a008fc03b77393d75d64d1f84fc6f430a64fc578bdd4c1e090e90ea2d51773e626d19de56d30536166654d6174683a206d756c7469706c69636174696f6e206f766572666c6f77c583ada0e509833a9547597ff168981366a194f50322650aa117661fc36821405361666545524332303a204552433230206f7065726174696f6e20646964206e6f7420737563636565645d0c0019d3d45fadeb74eff9d2c9924d146d000ac6bcf3c28bf0ac3c9baa011aa2646970667358221220e1bce9e18c0f14b555aa9924db0e97d234413b7f90480fc97d0b81375e2895a864736f6c634300060c0033",
  "linkReferences": {},
  "deployedLinkReferences": {}
}